:020000040000FA
:040000005DEF00F0C0
:1000080063086308630863086308630863085E0895
:10001800530863088707630863086308630863086D
:1000280093072E002E002E006308630863086308F8
:100038006308630863086308630863086308630860
:100048006308600863086308630863086308630853
:100058006308630863082E0063086308630863087D
:1000680055086308630863086308630863082E007B
:1000780063086308630863082E006308630863085D
:1000880063086308630863082E0063082E0063088A
:100098006308630863086308630863086308630800
:1000A80057082E002E006308630863086308630876
:0600B800FF00F7EF0FF05E
:1016000000C4190000D41C0000C020F220E820D43F
:101610002000000000000000006A20303132333426
:1016200035363738394142434445467A1E642100F5
:10163000000000FC200000A61E70216A21000006A8
:10164000210000436F6E76657273696F6E2065725C
:10165000726F723A20636F646520004F50412049D9
:101660006E2B2056616C75653A203078004F5041E2
:10167000204F55542056616C75653A2030780046ED
:101680006F726D6572204F66667365743A203078AC
:10169000004F66667365742076616C75653A20301C
:1016A0007800506F52204F66667365743A20307828
:1016B000004E6577204F66667365743A2030780077
:1016C0000A0D0000000E1D6E000E1C6E000E1E6E38
:1016D000000E206E000E1F6E17EC10F019EF0CF0CC
:1016E000030EE82EFED700F0390E07EC10F040ECA8
:1016F00010F001C518F502C519F58D0E07EC10F0B4
:1017000040EC10F001C516F502C517F51850165C2F
:101710001A6E195017581B6E1AC507F51BC508F528
:101720001F0E096E050E0A6E4DEC0CF0216E215055
:10173000D8A49DEF0BF09FEF0BF0A3EF0BF0010E81
:101740001E6E19EF0CF00001A829D8A4AAEF0BF027
:10175000ACEF0BF0BAEF0BF02150800A7F0FD8A04E
:10176000B4EF0BF0B6EF0BF0BAEF0BF0010E206EFA
:1017700001EF0CF0A851D8A4C0EF0BF0C2EF0BF0B2
:10178000CDEF0BF021BEC9EF0BF0C7EF0BF0CDEFA3
:101790000BF0020E206E01EF0CF021C512F5136A5A
:1017A00012BE1306A851146E156A12501426135057
:1017B000152215BEE2EF0BF01504D8A0E2EF0BF0F6
:1017C000E4EF0BF0E7EF0BF0A86901EF0CF021C597
:1017D00012F5136A12BE1306A851146E156A125040
:1017E00014261350152215BEFAEF0BF0F8EF0BF08C
:1017F000FEEF0BF0000EA86F01EF0CF02150A825B2
:10180000A86F1C4A1D2A1C281D10D8A40AEF0CF032
:101810000CEF0CF00EEF0CF0030E206EAA0E1F184A
:10182000D8A415EF0CF017EF0CF019EF0CF0040E24
:10183000206E2050D8A41FEF0CF021EF0CF029EF00
:101840000CF01E50D8B427EF0CF029EF0CF070EF1D
:101850000BF04BEC10F02050D8B431EF0CF033EF1C
:101860000CF03BEF0CF0430E0F6E160E106E20C501
:1018700011F5C0EC0FF0B10E0F6E160E106E600079
:10188000A0F211F5C0EC0FF0C00E026E160E036E42
:10189000020E046EC3EC0EF0120008BE54EF0CF002
:1018A00052EF0CF099EF0CF007C501F508C502F5F1
:1018B000FF0E046E0368ABEC0FF001C507F502C51F
:1018C00008F508BE6DEF0CF0085009E10B0E075C3F
:1018D000D8A06DEF0CF06FEF0CF073EF0CF0F60E7C
:1018E0000C6E86EF0CF008BE7FEF0CF0085009E19B
:1018F000060E075CD8A07FEF0CF081EF0CF085EFAF
:101900000CF0FE0E0C6E86EF0CF00C68610024F4F7
:10191000D9F4610028F4DAF4DF500B6ED8900B3460
:10192000610024F4D9F4610028F4DAF4DF6ED0EF1A
:101930000CF008BEA5EF0CF0085009E10B0E075C97
:10194000D8A0A5EF0CF0A7EF0CF0ABEF0CF00A0E4F
:101950000C6EBFEF0CF008BEB7EF0CF0085009E1B9
:10196000060E075CD8A0B7EF0CF0B9EF0CF0BDEF96
:101970000CF0020E0C6EBFEF0CF0010E0C6E61004D
:1019800024F4D9F4610028F4DAF4DF500B6ED88027
:101990000B34610024F4D9F4610028F4DAF4DF6E2A
:1019A00008BEDEEF0CF0085007E1020E075CD8B06D
:1019B000DCEF0CF0DEEF0CF0E0EF0CF0000E0C6E44
:1019C0000C501200AC90000E016E000E026E65EC21
:1019D00010F0AC92DA0E016E1D0E026E60EC10F08B
:1019E000AC94000E016E000E026E6FEC10F0AC961F
:1019F000000E016E000E026E5BEC10F0000E020194
:101A0000A16F000EA26F000EA36F000EA46F000E58
:101A1000A56F000EA66F000EA76F000EA86F000E38
:101A2000A96F000EAA6F200EAB6F800EAC6F000E78
:101A3000AD6F190EAE6F000EAF6F000EB06F000EDF
:101A4000B16F000EB26F000EB36F000E016E000E8C
:101A5000026E74EC10F0000E016E000E026E6AEC65
:101A600010F0000E016E000E026E79EC10F0000E08
:101A70003A6E000E3F6E000E3E6E080E5C6E120057
:101A8000000E0E6E000E0D6E59EF0DF00D50082475
:101A90000B6E0E5009200C6E61002CF4F6F4610000
:101AA00030F4F7F4F86A0800F5506AEC0EF00D4ACD
:101AB0000E2A0D5008240B6E0E5009200C6E61008A
:101AC0002CF4F6F4610030F4F7F4F86A0800F550ED
:101AD0000009D8A46EEF0DF070EF0DF046EF0DF099
:101AE0000A50D8A476EF0DF078EF0DF07AEF0DF0F4
:101AF00082EF0DF0C00E026E160E036E020E046E23
:101B0000C3EC0EF01200000EBE6E000EBF6E000E93
:101B1000C06E3B0EC66E700EC76EFB0EC86E000E1A
:101B20000401006F000E086F000E106F000E016FB1
:101B3000000E096F000E116F000E026F000E0A6F8B
:101B4000000E126F370E036FF00E0B6F13693F0E0E
:101B5000046FF00E0C6F1469110E0201496F100E24
:101B6000106F000E0401056F000E066F000E076F68
:101B7000000E0D6F000E0E6F000E0F6F000E156F32
:101B8000000E166F000E176F1200000E0301D96FC2
:101B9000000EDA6F000EDB6F000EDC6F000EDF6FE1
:101BA000000EE06F000EE56F200EE76F000EEC6F89
:101BB000200EEE6F000EEF6F000EF06F000EF16F53
:101BC000000EF26F000EF46F530EF56F070EF66FF6
:101BD000000EF76F030EF86F000EF96F000EFA6F2C
:101BE000940EF36FB494860E016E210E026E9CEC7F
:101BF00010F0B590880E016E210E026E97EC10F079
:101C0000AA801200D68A000ED6BE010E036ED69EA2
:101C1000550E0401596FAA0E596F5991000E5F6F4E
:101C2000000E5E6F080E5D6F550E596FAA0E596F4C
:101C3000598103B002D0D69E01D0D68E0301678FA2
:101C400069816B83B490D680900E016E210E026E76
:101C500092EC10F0B990D682920E016E210E026EB7
:101C60008DEC10F0BD90D684940E016E210E026EA4
:101C700088EC10F01200E6EC0FF026EC10F0D68E97
:101C8000D68CA20E0F6E160E106E6000A0F211F52B
:101C9000C0EC0FF0B8EC10F0B2EC10F0B6A653EFB9
:101CA0000EF055EF0EF05CEF0EF0B696B5EC10F0BE
:101CB00062EC0BF0B8EC10F0BDA661EF0EF063EF34
:101CC0000EF04EEF0EF0BD960001A8074EEF0EF09D
:101CD0005DEF00F0016E5C50D8B471EF0EF073EF61
:101CE0000EF06BEF0EF0ACB278EF0EF07AEF0EF074
:101CF0007FEF0EF0610004F4A3F295EF0EF0AC92CA
:101D0000320E3F24D96EDA6A050EDA22610004F43D
:101D1000DFF43F2A070E3F6490EF0EF092EF0EF0D3
:101D200094EF0EF0000E3F6E5C06AC8212000C6E5B
:101D30000C380F0B086E096A1B0E0824F66E160E7F
:101D40000920F76EF86A000EF82208006100D4F34B
:101D50000AF50C500F0B086E096A1B0E0824F66E6C
:101D6000160E0920F76EF86A000EF82208006100CE
:101D7000D4F30BF50A0E026E050E036E020E046E0E
:101D8000C3EC0EF01200000E076EE3EF0EF00750EA
:101D90000224056E000E0320066E610014F4F6F4B2
:101DA000610018F4F7F4000EF86E150EF76403D016
:101DB0000800F55005D0F6C4E9F4F7C4EAF4EF5092
:101DC0006AEC0EF0072A0450075CD8A0EAEF0EF088
:101DD000ECEF0EF0C7EF0EF01200080E5C60F3EFB0
:101DE0000EF0F5EF0EF00CEF0FF0320E3E24D96E30
:101DF000DA6A050EDA22DF500201A36F3E2A070ECF
:101E00003E6405EF0FF007EF0FF009EF0FF0000E43
:101E10003E6E5C2A0DEF0FF0AC921200B4945A5053
:101E20005B10D8B416EF0FF018EF0FF024EF0FF09F
:101E300002D824EF0FF00500FA6E5A50FD6E5B5089
:0A1E4000FE6EFF6AFA501200110056
:101E4C00B59058505910D8B42EEF0FF030EF0FF06A
:101E5C003CEF0FF002D83CEF0FF00500FA6E585033
:101E6C00FD6E5950FE6EFF6AFA5012001100040EFE
:101E7C0003012D6F000E2C6F000E2E6F130E2A6FA8
:101E8C00000E296F000E016E000E026E7EEC10F03B
:101E9C00BD96400E03012B6F1200040E0301206F40
:101EAC00000E1F6F000E216FA10E1D6F000E1C6F18
:101EBC00000E016E000E026E83EC10F0B6967E0ED4
:101ECC0003011E6F12004E504F10D8B470EF0FF07C
:101EDC0072EF0FF07EEF0FF002D87EEF0FF00500DF
:101EEC00FA6E4E50FD6E4F50FE6EFF6AFA501200A5
:101EFC0012004C504D10D8B486EF0FF088EF0FF055
:101F0C0094EF0FF002D894EF0FF00500FA6E4C50DE
:101F1C00FD6E4D50FE6EFF6AFA50120012004A50D0
:101F2C004B10D8B49CEF0FF09EEF0FF0AAEF0FF010
:101F3C0002D8AAEF0FF00500FA6E4A50FD6E4B5016
:101F4C00FE6EFF6AFA50120012000150030261008B
:101F5C00CCF305F56100D0F306F501500402F35003
:101F6C00062602500302F350062605C501F506C5E8
:101F7C0002F512000FC508F510C509F5000E0A6E22
:101F8C0040EC0DF0115097EC0EF0C00E026E160ED8
:101F9C00036E020E046EC3EC0EF01200600E000114
:101FAC00AD6F700EAE6F000EAF6F000EB36F020E02
:101FBC00B16F000EB26F000EB06F000EAC6F12005E
:101FCC003DEC0FF0E2EC0CF0D4EC0FF0C5EC0DF0A6
:101FDC0002EC0EF053EC0FF0A1EC10F083EC0DF0D2
:101FEC00120001EE22F11E0EEE6AE806FDE104017C
:101FFC00080E5D6F000E5E6F000E5F6F00013BEF11
:10200C000EF0026E35EC10F00009D8B410EF10F0A1
:10201C0012EF10F008EF10F0025053EC10F0030028
:10202C001200BE840001A3878F0EA5177F0E0F6EC2
:10203C00160E106E6000A0F211F5C0EC0FF012003D
:10204C00000E0001A36F390EA46F130EA56F800E46
:10205C00A66F000EA76F000EA96FA38F12000201CE
:10206C00B2BF3BEF10F03EEF10F0010E3FEF10F05F
:10207C00000E12000301E251046E036AE1510324C5
:10208C00016E000E0420026E1200BE940001A39794
:10209C00A5518F0B1009A56F1200016E610004F49D
:1020AC00ECF30301F38FF381120001C550F502C567
:1020BC0051F5120001C554F502C555F5120001C5C4
:1020CC0056F502C557F5120001C542F502C543F598
:1020DC00120001C552F502C553F5120001C544F5B5
:1020EC0002C545F5120001C540F502C541F51200C7
:1020FC0001C546F502C547F5120001C548F502C5F4
:10210C0049F5120001C54AF502C54BF5120001C58F
:10211C004CF502C54DF5120001C54EF502C54FF543
:10212C00120001C558F502C559F5120001C55AF542
:0E213C0002C55BF51200C30E0301D76F12003F
:10214C00B49069EC0FF01100B9907FEC0FF0110016
:10215C00BD9095EC0FF0110003012B8F12000301C1
:0A216C001E9F120003011E8F1200D7
:06217800C7EC10F011009D
:0A218000EDEC0EF011001200120049
:0A218C0011001200120012001200F0
:020000040020DA
:10000000FF0FFF0FFF0FFF0FFF0FFF0FFF0FFF0F80
:10001000FF0FFF0FFF0FFF0FFF0FFF0FFF0FFF0F70
:020000040030CA
:0A0000008CFFFFFF9FFFFFFFFFFFD3
:00000001FF
