:040000005DEF00F0C0
:10000800280828082808280828082808280826086A
:100018001B08280828082808280828082808280865
:1000280057072E002E002E00280828082808280820
:100038002808280828082808280828082808280838
:100048002808280828082808280828082808280828
:100058002808280828082E0028082808280828081A
:100068001D082808280828082808280828082E0015
:1000780028082808280828082E00280828082808FA
:1000880028082808280828082E0028082E002808EC
:1000980028082808280828082808280828082808D8
:1000A8001F082E002E0028082808280828082808D5
:0600B800FF0081EF0FF0D4
:1016000000C41900007C1F000000001C201220FEF6
:101610001F0000000000000000941F3031323334FE
:1016200035363738394142434445468A1D842000C7
:1016300000000026200000B61D90208A2000003007
:10164000200000436F6E76657273696F6E2065725D
:10165000726F723A20636F646520004F50412049D9
:101660006E2B2056616C75653A203078004F5041E2
:10167000204F55542056616C75653A2030780046ED
:101680006F726D6572204F66667365743A203078AC
:10169000004F66667365742076616C75653A20301C
:1016A0007800506F52204F66667365743A20307828
:1016B000004E6577204F66667365743A2030780077
:1016C0000A0D0000000E1D6E000E1C6E000E1E6E38
:1016D000000E206E000E1F6EA1EC0FF019EF0CF043
:1016E000030EE82EFED700F0390E91EC0FF0D5EC8A
:1016F0000FF001C518F502C519F58D0E91EC0FF02C
:10170000D5EC0FF001C516F502C517F51850165C9B
:101710001A6E195017581B6E1AC507F51BC508F528
:101720001F0E096E050E0A6E4DEC0CF0216E215055
:10173000D8A49DEF0BF09FEF0BF0A3EF0BF0010E81
:101740001E6E19EF0CF00001A829D8A4AAEF0BF027
:10175000ACEF0BF0BAEF0BF02150800A7F0FD8A04E
:10176000B4EF0BF0B6EF0BF0BAEF0BF0010E206EFA
:1017700001EF0CF0A851D8A4C0EF0BF0C2EF0BF0B2
:10178000CDEF0BF021BEC9EF0BF0C7EF0BF0CDEFA3
:101790000BF0020E206E01EF0CF021C512F5136A5A
:1017A00012BE1306A851146E156A12501426135057
:1017B000152215BEE2EF0BF01504D8A0E2EF0BF0F6
:1017C000E4EF0BF0E7EF0BF0A86901EF0CF021C597
:1017D00012F5136A12BE1306A851146E156A125040
:1017E00014261350152215BEFAEF0BF0F8EF0BF08C
:1017F000FEEF0BF0000EA86F01EF0CF02150A825B2
:10180000A86F1C4A1D2A1C281D10D8A40AEF0CF032
:101810000CEF0CF00EEF0CF0030E206EAA0E1F184A
:10182000D8A415EF0CF017EF0CF019EF0CF0040E24
:10183000206E2050D8A41FEF0CF021EF0CF029EF00
:101840000CF01E50D8B427EF0CF029EF0CF070EF1D
:101850000BF0E0EC0FF02050D8B431EF0CF033EF88
:101860000CF03BEF0CF0430E0F6E160E106E20C501
:1018700011F548EC0FF0B10E0F6E160E106E6000F1
:10188000A0F211F548EC0FF0C00E026E160E036EBA
:10189000020E046E83EC0EF0120008BE54EF0CF042
:1018A00052EF0CF099EF0CF007C501F508C502F5F1
:1018B000FF0E046E036833EC0FF001C507F502C597
:1018C00008F508BE6DEF0CF0085009E10B0E075C3F
:1018D000D8A06DEF0CF06FEF0CF073EF0CF0F60E7C
:1018E0000C6E86EF0CF008BE7FEF0CF0085009E19B
:1018F000060E075CD8A07FEF0CF081EF0CF085EFAF
:101900000CF0FE0E0C6E86EF0CF00C68610024F4F7
:10191000D9F4610028F4DAF4DF500B6ED8900B3460
:10192000610024F4D9F4610028F4DAF4DF6ED0EF1A
:101930000CF008BEA5EF0CF0085009E10B0E075C97
:10194000D8A0A5EF0CF0A7EF0CF0ABEF0CF00A0E4F
:101950000C6EBFEF0CF008BEB7EF0CF0085009E1B9
:10196000060E075CD8A0B7EF0CF0B9EF0CF0BDEF96
:101970000CF0020E0C6EBFEF0CF0010E0C6E61004D
:1019800024F4D9F4610028F4DAF4DF500B6ED88027
:101990000B34610024F4D9F4610028F4DAF4DF6E2A
:1019A00008BEDEEF0CF0085007E1020E075CD8B06D
:1019B000DCEF0CF0DEEF0CF0E0EF0CF0000E0C6E44
:1019C0000C501200AC90000E016E000E026EFAEC8C
:1019D0000FF0AC92000E016E000E026EF5EC0FF0EF
:1019E000AC94000E016E000E026E04EC10F0AC968A
:1019F000000E016E000E026EF0EC0FF0000E020100
:101A0000A16F000EA26F000EA36F000EA46F000E58
:101A1000A56F000EA66F000EA76F000EA86F000E38
:101A2000A96F000EAA6F200EAB6F800EAC6F000E78
:101A3000AD6F190EAE6F000EAF6F000EB06F000EDF
:101A4000B16F000EB26F000EB36F000E016E000E8C
:101A5000026E09EC10F0000E016E000E026EFFEC3B
:101A60000FF0000E016E000E026E0EEC10F0000E74
:101A70003A6E1200000E0E6E000E0D6E53EF0DF05A
:101A80000D5008240B6E0E5009200C6E61002CF4D2
:101A9000F6F4610030F4F7F4F86A0800F550BEEC93
:101AA0000FF00D4A0E2A0D5008240B6E0E5009201F
:101AB0000C6E61002CF4F6F4610030F4F7F4F86A6F
:101AC0000800F5500009D8A468EF0DF06AEF0DF09A
:101AD00040EF0DF00A50D8A470EF0DF072EF0DF04A
:101AE00074EF0DF07CEF0DF0C00E026E160E036E5B
:101AF000020E046E83EC0EF01200000EBE6E000E9D
:101B0000BF6E000EC06E3B0EC66E700EC76EFB0E33
:101B1000C86E370E0401006FF00E086F1069000EDA
:101B2000016F000E096F000E116F000E026F000EA4
:101B30000A6F000E126F370E036FF00E0B6F1369F2
:101B40003F0E046FF00E0C6F1469100E0201106F3F
:101B5000000E0401056F000E066F000E076F000EE9
:101B60000D6F000E0E6F000E0F6F000E156F000E42
:101B7000166F000E176F1200D68A000ED6BE010E29
:101B8000036ED69E550E0401596FAA0E596F5991D6
:101B9000000E5F6F000E5E6F080E5D6F550E596F81
:101BA000AA0E596F598103B002D0D69E01D0D68EAD
:101BB00003016981B490D680A40E016E200E026EDE
:101BC00027EC10F0B990D682A60E016E200E026EA0
:101BD00022EC10F0BD90D684A80E016E200E026E8D
:101BE0001DEC10F01200000E0301D96F000EDA6F29
:101BF000000EDB6F000EDC6F000EDF6F000EE06F7B
:101C0000000EE56F200EE76F000EEC6F200EEE6FFA
:101C1000000EEF6F000EF06F000EF16F000EF26F0E
:101C2000000EF46F530EF56F070EF66F000EF76F90
:101C3000030EF86F000EF96F000EFA6F940EF36F3B
:101C4000B494B5909E0E016E200E026E2CEC10F036
:101C5000AA8012005CEC0FF0D68ED68CA20E0F6E0E
:101C6000160E106E6000A0F211F548EC0FF048EC73
:101C700010F042EC10F0B6A640EF0EF042EF0EF07E
:101C800049EF0EF0B69645EC10F062EC0BF048EC24
:101C900010F0BDA64EEF0EF050EF0EF03BEF0EF041
:101CA000BD960001A8073BEF0EF05DEF00F00C6E53
:101CB0000C380F0B086E096A1B0E0824F66E160E00
:101CC0000920F76EF86A000EF82208006100D4F3CC
:101CD0000AF50C500F0B086E096A1B0E0824F66EED
:101CE000160E0920F76EF86A000EF822080061004F
:101CF000D4F30BF50A0E026E050E036E020E046E8F
:101D000083EC0EF01200000E076EA3EF0EF00750EA
:101D10000224056E000E0320066E610014F4F6F432
:101D2000610018F4F7F4000EF86E150EF76403D096
:101D30000800F55005D0F6C4E9F4F7C4EAF4EF5012
:101D4000BEEC0FF0072A0450075CD8A0AAEF0EF0F3
:0A1D5000ACEF0EF087EF0EF012006A
:101D5C00B59059505A10D8B4B6EF0EF0B8EF0EF04B
:101D6C00C4EF0EF002D8C4EF0EF00500FA6E595015
:101D7C00FD6E5A50FE6EFF6AFA5012001100040EEE
:101D8C0003012D6F000E2C6F000E2E6F130E2A6F99
:101D9C00000E296F000E016E000E026E13EC10F097
:101DAC00BD96C00E03012B6F1200040E0301206FB1
:101DBC00000E1F6F000E216FA10E1D6F000E1C6F09
:101DCC00000E016E000E026E18EC10F0B696FE0EB0
:101DDC0003011E6F12004F505010D8B4F8EF0EF0E4
:101DEC00FAEF0EF006EF0FF002D806EF0FF0050039
:101DFC00FA6E4F50FD6E5050FE6EFF6AFA50120094
:101E0C0012004D504E10D8B40EEF0FF010EF0FF033
:101E1C001CEF0FF002D81CEF0FF00500FA6E4D50BE
:101E2C00FD6E4E50FE6EFF6AFA50120012004B50BF
:101E3C004C10D8B424EF0FF026EF0FF032EF0FF068
:101E4C0002D832EF0FF00500FA6E4B50FD6E4C507D
:101E5C00FE6EFF6AFA50120012000150030261007C
:101E6C00CCF305F56100D0F306F501500402F350F4
:101E7C00062602500302F350062605C501F506C5D9
:101E8C0002F512000FC508F510C509F5000E0A6E13
:101E9C003AEC0DF0115057EC0EF0C00E026E160E0F
:101EAC00036E020E046E83EC0EF012006FEC0FF05A
:101EBC007DEC0DF0F3EC0DF031EC10F0B0EC0FF01C
:101ECC00DBEC0EF0C5EC0EF0E2EC0CF0BCEC0DF023
:101EDC001200600E0001AD6F700EAE6F000EAF6F92
:101EEC00000EB36F020EB16F000EB26F000EB06F2A
:101EFC00000EAC6F120001EE22F11F0EEE6AE80626
:101F0C00FDE10401080E5D6F000E5E6F000E5F6F49
:101F1C0000012AEF0EF0026ECAEC0FF00009D8B4E3
:101F2C009AEF0FF09CEF0FF092EF0FF00250E8ECED
:101F3C000FF003001200BE840001A3878F0EA517BB
:101F4C007F0E0F6E160E106E6000A0F211F548ECAD
:101F5C000FF01200380E0001A46F130EA56F800E47
:101F6C00A66F000EA76F000EA96F800EA36F120054
:101F7C00016EB7A2C4EF0FF0C6EF0FF0BFEF0FF07A
:101F8C00610004F4A3F212000201B2BFD0EF0FF013
:101F9C00D3EF0FF0010ED4EF0FF0000E120003017F
:101FAC00E251046E036AE1510324016E000E042019
:101FBC00026E1200BE940001A397A5518F0B10095D
:101FCC00A56F1200016E610004F4ECF30301F38FB2
:101FDC00F381120001C551F502C552F5120001C57D
:101FEC0055F502C556F5120001C557F502C558F551
:101FFC00120001C543F502C544F5120001C553F5A5
:10200C0002C554F5120001C545F502C546F512008E
:10201C0001C541F502C542F5120001C547F502C5DF
:10202C0048F5120001C549F502C54AF5120001C573
:10203C004BF502C54CF5120001C54DF502C54EF528
:10204C00120001C54FF502C550F5120001C559F536
:0E205C0002C55AF51200C30E0301D76F120021
:10206C00B490F1EC0EF01100B99007EC0FF01100E8
:10207C00BD901DEC0FF0110003012B8F120003011A
:0A208C001E9F120003011E8F1200B8
:1020980051EC10F011001200110012001200120091
:0220A800120024
:020000040020DA
:10000000FF0FFF0FFF0FFF0FFF0FFF0FFF0FFF0F80
:10001000FF0FFF0FFF0FFF0FFF0FFF0FFF0FFF0F70
:020000040030CA
:0A0000008CFFFFFF9FFFFFFFFFFFD3
:00000001FF
