:020000040000FA
:040000005DEF00F0C0
:100008005408540854085408540854085408540808
:1000180046085408850754085408540854085408D6
:1000280091072E002E002E00540854085408540836
:1000380054085408540854085408540854085408D8
:1000480054085108540854085408540854085408CB
:100058005408540854082E005408540854085408E6
:1000680048085408540854085408540854082E00E2
:1000780054085408540854082E00540854085408C6
:1000880054085408540854082E0054082E005408E4
:100098005408540854085408540854085408540878
:1000A8004A082E002E0054085408540854085408CE
:0600B800FF00E2EF0FF073
:1016000000C4190000CA1C00009620C820BE20AAF1
:101610002000000000000000004020303132333450
:101620003536373839414243444546721E30210031
:10163000000000D22000009E1E3C2136210000DC6C
:10164000200000436F6E76657273696F6E2065725D
:10165000726F723A20636F646520004F50412049D9
:101660006E2B2056616C75653A203078004F5041E2
:10167000204F55542056616C75653A2030780046ED
:101680006F726D6572204F66667365743A203078AC
:10169000004F66667365742076616C75653A20301C
:1016A0007800506F52204F66667365743A20307828
:1016B000004E6577204F66667365743A2030780077
:1016C0000A0D0000000E1D6E000E1C6E000E1E6E38
:1016D000000E206E000E1F6E02EC10F019EF0CF0E1
:1016E000030EE82EFED700F0390EF2EC0FF02BECD3
:1016F00010F001C518F502C519F58D0EF2EC0FF0CA
:101700002BEC10F001C516F502C517F51850165C44
:101710001A6E195017581B6E1AC507F51BC508F528
:101720001F0E096E050E0A6E4DEC0CF0216E215055
:10173000D8A49DEF0BF09FEF0BF0A3EF0BF0010E81
:101740001E6E19EF0CF00001A829D8A4AAEF0BF027
:10175000ACEF0BF0BAEF0BF02150800A7F0FD8A04E
:10176000B4EF0BF0B6EF0BF0BAEF0BF0010E206EFA
:1017700001EF0CF0A851D8A4C0EF0BF0C2EF0BF0B2
:10178000CDEF0BF021BEC9EF0BF0C7EF0BF0CDEFA3
:101790000BF0020E206E01EF0CF021C512F5136A5A
:1017A00012BE1306A851146E156A12501426135057
:1017B000152215BEE2EF0BF01504D8A0E2EF0BF0F6
:1017C000E4EF0BF0E7EF0BF0A86901EF0CF021C597
:1017D00012F5136A12BE1306A851146E156A125040
:1017E00014261350152215BEFAEF0BF0F8EF0BF08C
:1017F000FEEF0BF0000EA86F01EF0CF02150A825B2
:10180000A86F1C4A1D2A1C281D10D8A40AEF0CF032
:101810000CEF0CF00EEF0CF0030E206EAA0E1F184A
:10182000D8A415EF0CF017EF0CF019EF0CF0040E24
:10183000206E2050D8A41FEF0CF021EF0CF029EF00
:101840000CF01E50D8B427EF0CF029EF0CF070EF1D
:101850000BF036EC10F02050D8B431EF0CF033EF31
:101860000CF03BEF0CF0430E0F6E160E106E20C501
:1018700011F5BCEC0FF0B10E0F6E160E106E60007D
:10188000A0F211F5BCEC0FF0C00E026E160E036E46
:10189000020E046EBEEC0EF0120008BE54EF0CF007
:1018A00052EF0CF099EF0CF007C501F508C502F5F1
:1018B000FF0E046E0368A7EC0FF001C507F502C523
:1018C00008F508BE6DEF0CF0085009E10B0E075C3F
:1018D000D8A06DEF0CF06FEF0CF073EF0CF0F60E7C
:1018E0000C6E86EF0CF008BE7FEF0CF0085009E19B
:1018F000060E075CD8A07FEF0CF081EF0CF085EFAF
:101900000CF0FE0E0C6E86EF0CF00C68610024F4F7
:10191000D9F4610028F4DAF4DF500B6ED8900B3460
:10192000610024F4D9F4610028F4DAF4DF6ED0EF1A
:101930000CF008BEA5EF0CF0085009E10B0E075C97
:10194000D8A0A5EF0CF0A7EF0CF0ABEF0CF00A0E4F
:101950000C6EBFEF0CF008BEB7EF0CF0085009E1B9
:10196000060E075CD8A0B7EF0CF0B9EF0CF0BDEF96
:101970000CF0020E0C6EBFEF0CF0010E0C6E61004D
:1019800024F4D9F4610028F4DAF4DF500B6ED88027
:101990000B34610024F4D9F4610028F4DAF4DF6E2A
:1019A00008BEDEEF0CF0085007E1020E075CD8B06D
:1019B000DCEF0CF0DEEF0CF0E0EF0CF0000E0C6E44
:1019C0000C501200AC90000E016E000E026E50EC36
:1019D00010F0AC92D00E016E1D0E026E4BEC10F0AA
:1019E000AC94000E016E000E026E5AEC10F0AC9634
:1019F000000E016E000E026E46EC10F0000E0201A9
:101A0000A16F000EA26F000EA36F000EA46F000E58
:101A1000A56F000EA66F000EA76F000EA86F000E38
:101A2000A96F000EAA6F200EAB6F800EAC6F000E78
:101A3000AD6F190EAE6F000EAF6F000EB06F000EDF
:101A4000B16F000EB26F000EB36F000E016E000E8C
:101A5000026E5FEC10F0000E016E000E026E55EC8F
:101A600010F0000E016E000E026E64EC10F0000E1D
:101A70003A6E000E3F6E000E3E6E080E5C6E120057
:101A8000000E0E6E000E0D6E59EF0DF00D50082475
:101A90000B6E0E5009200C6E61002CF4F6F4610000
:101AA00030F4F7F4F86A0800F55065EC0EF00D4AD2
:101AB0000E2A0D5008240B6E0E5009200C6E61008A
:101AC0002CF4F6F4610030F4F7F4F86A0800F550ED
:101AD0000009D8A46EEF0DF070EF0DF046EF0DF099
:101AE0000A50D8A476EF0DF078EF0DF07AEF0DF0F4
:101AF00082EF0DF0C00E026E160E036E020E046E23
:101B0000BEEC0EF01200000EBE6E000EBF6E000E98
:101B1000C06E3B0EC66E700EC76EFB0EC86E000E1A
:101B20000401006F000E086F000E106F000E016FB1
:101B3000000E096F000E116F000E026F000E0A6F8B
:101B4000000E126F370E036FF00E0B6F13693F0E0E
:101B5000046FF00E0C6F1469100E0201106F000E6E
:101B60000401056F000E066F000E076F000E0D6F6B
:101B7000000E0E6F000E0F6F000E156F000E166F29
:101B8000000E176F1200000E0301D96F000EDA6FFE
:101B9000000EDB6F000EDC6F000EDF6F000EE06FDB
:101BA000000EE56F000EE76F000EEC6F200EEE6F7B
:101BB000000EEF6F000EF06F000EF16F000EF26F6F
:101BC000000EF46F530EF56F070EF66F000EF76FF1
:101BD000000EF86F000EF96F000EFA6F940EF36F9F
:101BE000B4944A0E016E210E026E87EC10F0B5908F
:101BF0004C0E016E210E026E82EC10F0AA801200D3
:101C0000D68A000ED6BE010E036ED69E550E040176
:101C1000596FAA0E596F5991000E5F6F000E5E6FDB
:101C2000080E5D6F550E596FAA0E596F598103B09A
:101C300002D0D69E01D0D68E030169816B83B49009
:101C4000D680520E016E210E026E7DEC10F0B9901E
:101C5000D682540E016E210E026E78EC10F0BD900B
:101C6000D684560E016E210E026E73EC10F0120037
:101C700011EC10F0D68ED68CA20E0F6E160E106ED2
:101C80006000A0F211F5BCEC0FF09EEC10F098ECA7
:101C900010F0B6A64EEF0EF050EF0EF057EF0EF02C
:101CA000B6969BEC10F062EC0BF09EEC10F0BDA62B
:101CB0005CEF0EF05EEF0EF049EF0EF0BD96000106
:101CC000A80749EF0EF05DEF00F0016E5C50D8B44C
:101CD0006CEF0EF06EEF0EF066EF0EF0ACB273EF3D
:101CE0000EF075EF0EF07AEF0EF0610004F4A3F23F
:101CF00090EF0EF0AC92320E3F24D96EDA6A050EE8
:101D0000DA22610004F4DFF43F2A070E3F648BEF10
:101D10000EF08DEF0EF08FEF0EF0000E3F6E5C06B2
:101D2000AC8212000C6E0C380F0B086E096A1B0E89
:101D30000824F66E160E0920F76EF86A000EF822D7
:101D400008006100D4F30AF50C500F0B086E096A05
:101D50001B0E0824F66E160E0920F76EF86A000EA8
:101D6000F82208006100D4F30BF50A0E026E050E8E
:101D7000036E020E046EBEEC0EF01200000E076E33
:101D8000DEEF0EF007500224056E000E0320066EF3
:101D9000610014F4F6F4610018F4F7F4000EF86E24
:101DA000150EF76403D00800F55005D0F6C4E9F429
:101DB000F7C4EAF4EF5065EC0EF0072A0450075C14
:101DC000D8A0E5EF0EF0E7EF0EF0C2EF0EF0120034
:101DD000080E5C60EEEF0EF0F0EF0EF007EF0FF084
:101DE000320E3E24D96EDA6A050EDA22DF50020185
:101DF000A36F3E2A070E3E6400EF0FF002EF0FF0D4
:101E000004EF0FF0000E3E6E5C2A08EF0FF0AC926C
:021E10001200BE
:101E1400B4945A505B10D8B412EF0FF014EF0FF0D3
:101E240020EF0FF002D820EF0FF00500FA6E5A50A1
:0E1E3400FD6E5B50FE6EFF6AFA501200110048
:101E4400B59058505910D8B42AEF0FF02CEF0FF07A
:101E540038EF0FF002D838EF0FF00500FA6E585043
:101E6400FD6E5950FE6EFF6AFA5012001100040E06
:101E740003012D6F000E2C6F000E2E6F130E2A6FB0
:101E8400000E296F000E016E000E026E69EC10F058
:101E9400BD96400E03012B6F1200040E0301206F48
:101EA400000E1F6F000E216FA10E1D6F000E1C6F20
:101EB400000E016E000E026E6EEC10F0B6967E0EF1
:101EC40003011E6F12004E504F10D8B46CEF0FF088
:101ED4006EEF0FF07AEF0FF002D87AEF0FF00500F3
:101EE400FA6E4E50FD6E4F50FE6EFF6AFA501200AD
:101EF40012004C504D10D8B482EF0FF084EF0FF065
:101F040090EF0FF002D890EF0FF00500FA6E4C50EE
:101F1400FD6E4D50FE6EFF6AFA50120012004A50D8
:101F24004B10D8B498EF0FF09AEF0FF0A6EF0FF024
:101F340002D8A6EF0FF00500FA6E4A50FD6E4B5022
:101F4400FE6EFF6AFA501200120001500302610093
:101F5400CCF305F56100D0F306F501500402F3500B
:101F6400062602500302F350062605C501F506C5F0
:101F740002F512000FC508F510C509F5000E0A6E2A
:101F840040EC0DF0115092EC0EF0C00E026E160EE5
:101F9400036E020E046EBEEC0EF01200600E000121
:101FA400AD6F700EAE6F000EAF6F000EB36F020E0A
:101FB400B16F000EB26F000EB06F000EAC6F120066
:101FC40001EE22F11E0EEE6AE806FDE10401080EA0
:101FD4005D6F000E5E6F000E5F6F000138EF0EF054
:101FE400026E20EC10F00009D8B4FBEF0FF0FDEF07
:101FF4000FF0F3EF0FF002503EEC10F0030012006C
:10200400BE840001A3878F0EA5177F0E0F6E160ED8
:10201400106E6000A0F211F5BCEC0FF0120039EC68
:102024000FF0E2EC0CF0D0EC0FF0C3EC0DF000EC90
:102034000EF04FEC0FF083EC0DF012000201B2BF72
:1020440026EF10F029EF10F0010E2AEF10F0000E29
:1020540012000301E251046E036AE1510324016E8C
:10206400000E0420026E1200BE940001A397A55135
:102074008F0B1009A56F1200016E610004F4ECF3DC
:102084000301F38FF381120001C550F502C551F528
:10209400120001C554F502C555F5120001C556F5E7
:1020A40002C557F5120001C542F502C543F51200F9
:1020B40001C552F502C553F5120001C544F502C528
:1020C40045F5120001C540F502C541F5120001C5F0
:1020D40046F502C547F5120001C548F502C549F5A4
:1020E400120001C54AF502C54BF5120001C54CF5B5
:1020F40002C54DF5120001C54EF502C54FF512009B
:1021040001C558F502C559F5120001C55AF502C5B5
:102114005BF51200B49065EC0FF01100B9907BEC04
:102124000FF01100BD9091EC0FF0110003012B8F03
:0E213400120003011E9F120003011E8F1200F5
:0A214400E8EC0EF01100120012008A
:08215000110012001200120040
:020000040020DA
:10000000FF0FFF0FFF0FFF0FFF0FFF0FFF0FFF0F80
:10001000FF0FFF0FFF0FFF0FFF0FFF0FFF0FFF0F70
:020000040030CA
:0A0000008CFFFFFF9FFFFFFFFFFFD3
:00000001FF
