:020000040000FA
:040000000DEF00F010
:04000800F9EF0CF010
:06001800FF0052EF0FF0A3
:10150000003031323334353637383941424344457F
:1015100046436F6E76657273696F6E206572726F87
:10152000723A20636F646520004F504120496E2B52
:101530002056616C75653A203078004F5041204F3D
:1015400055542056616C75653A20307800466F72AC
:101550006D6572204F66667365743A203078004F6F
:1015600066667365742076616C75653A2030780024
:10157000506F52204F66667365743A203078004E83
:101580006577204F66667365743A203078000A0DDF
:101590000000000E1D6E000E1C6E000E1E6E000E72
:1015A000206E000E1F6E62EC0FF084EF0BF0350E14
:1015B000E82EFED700F0390E72EC0FF0E0EC0FF0E1
:1015C00001C518F502C519F58D0E72EC0FF0E0ECAF
:1015D0000FF001C516F502C517F51850165C1A6E06
:1015E000195017581B6E1AC507F51BC508F51F0EB5
:1015F000096E050E0A6EB8EC0BF0216E2150D8A4CE
:1016000004EF0BF006EF0BF00AEF0BF0010E1E6E6D
:1016100084EF0BF00001A829D8A411EF0BF013EF11
:101620000BF021EF0BF02150800A7F0FD8A01BEFA9
:101630000BF01DEF0BF021EF0BF0010E206E6CEFA5
:101640000BF0A851D8A427EF0BF029EF0BF034EFE3
:101650000BF021BE30EF0BF02EEF0BF034EF0BF060
:10166000020E206E6CEF0BF021C512F5136A12BE4C
:101670001306A851146E156A125014261350152221
:1016800015BE49EF0BF01504D8A049EF0BF04BEF56
:101690000BF050EF0BF0FF0EFAEC0FF06CEF0BF0CD
:1016A00021C512F5136A12BE1306A851146E156AED
:1016B000125014261350152215BE63EF0BF061EF84
:1016C0000BF068EF0BF0000EFAEC0FF06CEF0BF084
:1016D0002150A825FAEC0FF01C4A1D2A1C281D10C9
:1016E000D8A475EF0BF077EF0BF079EF0BF0030E4A
:1016F000206EAA0E1F18D8A480EF0BF082EF0BF01B
:1017000084EF0BF0040E206E2050D8A48AEF0BF06B
:101710008CEF0BF094EF0BF01E50D8B492EF0BF05F
:1017200094EF0BF0D7EF0AF0F3EC0FF02050D8B4A1
:101730009CEF0BF09EEF0BF0A6EF0BF0110E0F6E6F
:10174000150E106E20C511F53EEC0FF07F0E0F6EDA
:10175000150E106E6000A0F211F53EEC0FF08E0E2B
:10176000026E150E036E020E046E73EC0EF0120084
:1017700008BEBFEF0BF0BDEF0BF004EF0CF007C598
:1017800001F508C502F5FF0E046E0368D5EC0EF0F6
:1017900001C507F502C508F508BED8EF0BF00850E3
:1017A00009E10B0E075CD8A0D8EF0BF0DAEF0BF0D5
:1017B000DEEF0BF0F60E0C6EF1EF0BF008BEEAEF69
:1017C0000BF0085009E1060E075CD8A0EAEF0BF019
:1017D000ECEF0BF0F0EF0BF0FE0E0C6EF1EF0BF0F8
:1017E0000C68610024F4D9F4610028F4DAF4DF50C5
:1017F0000B6ED8900B34610024F4D9F4610028F406
:10180000DAF4DF6E3BEF0CF008BE10EF0CF008507E
:1018100009E10B0E075CD8A010EF0CF012EF0CF0F2
:1018200016EF0CF00A0E0C6E2AEF0CF008BE22EF39
:101830000CF0085009E1060E075CD8A022EF0CF06E
:1018400024EF0CF028EF0CF0020E0C6E2AEF0CF0D7
:10185000010E0C6E610024F4D9F4610028F4DAF46E
:10186000DF500B6ED8800B34610024F4D9F4610092
:1018700028F4DAF4DF6E08BE49EF0CF0085007E1F7
:10188000020E075CD8B047EF0CF049EF0CF04BEFBD
:101890000CF0000E0C6E0C501200220E3D24D96E7E
:1018A000DA6A050EDA22000EDF6E0201B2A75BEFE4
:1018B0000CF05DEF0CF070EF0CF0220E3D24D96EB1
:1018C000DA6A050EDA22DF8202D870EF0CF005002A
:1018D000FA6E4450FD6E4550FE6EFF6AFA501200DB
:1018E0000201B2A376EF0CF078EF0CF08BEF0CF066
:1018F000220E3D24D96EDA6A050EDA22DF8402D880
:101900008BEF0CF00500FA6E4250FD6E4350FE6EF8
:10191000FF6AFA501200220E3D24D96EDA6A050ED3
:10192000DA22DF50D8B497EF0CF099EF0CF0A7EF64
:101930000CF002D8A5EF0CF00500FA6E4050FD6ED9
:101940004150FE6EFF6AFA501200A9EF0CF029EC2C
:101950000FF01200AC909A0E016E180E026E04EC9D
:1019600010F0AC923A0E016E1D0E026EFFEC0FF0FD
:10197000000E0201A56F000EA66F000EA76F000EED
:10198000A86F000EA96F000EAA6FA00EAB6F800E9D
:10199000AC6F000EAD6F820EAE6F060EAF6F000E15
:1019A000B06F000EB16F000EB26F000EB36F660E17
:1019B000016E200E026E0EEC10F0640E016E200E11
:1019C000026E09EC10F05A0E016E200E026E13EC3E
:1019D00010F0000E3A6E000E3F6E000E3E6E080EC6
:1019E0004C6E000E3D6E000E3C6E000E3B6EAC80E9
:1019F0001200ACA2FEEF0CF000EF0DF015EF0DF0B1
:101A0000B7A205EF0DF007EF0DF015EF0DF002D8BE
:101A100013EF0DF00500FA6E4650FD6E4750FE6E56
:101A2000FF6AFA50120043EF0DF0ACA01AEF0DF070
:101A30001CEF0DF031EF0DF0B7A021EF0DF023EF0B
:101A40000DF031EF0DF002D82FEF0DF00500FA6E1A
:101A50004850FD6E4950FE6EFF6AFA50120043EF87
:101A60000DF0AAA036EF0DF038EF0DF043EF0DF0BA
:101A7000B5A03DEF0DF03FEF0DF043EF0DF0BEECE4
:101A80000EF043EF0DF01100000E0E6E000E0D6E05
:101A90005DEF0DF00D5008240B6E0E5009200C6EFA
:101AA00061002CF4F6F4610030F4F7F4F86A0800F1
:101AB000F550EDEC0DF00D4A0E2A0D5008240B6E7A
:101AC0000E5009200C6E61002CF4F6F4610030F425
:101AD000F7F4F86A0800F5500009D8A472EF0DF089
:101AE00074EF0DF04AEF0DF00A50D8A47AEF0DF024
:101AF0007CEF0DF07EEF0DF086EF0DF08E0E026E96
:101B0000150E036E020E046E73EC0EF01200000E42
:101B10000301D96F000EDA6F000EDB6F000EDC6F71
:101B2000000EDF6F000EE06F000EE56F200EE76F16
:101B3000000EEC6F200EEE6F000EEF6F000EF06FD8
:101B4000000EF16F000EF26F000EF46F530EF56F82
:101B5000070EF66F000EF76F030EF86F000EF96FA9
:101B6000000EFA6F940EF36FB590AA80680E016EA6
:101B7000200E026E18EC10F0120014EC0FF0D68E4E
:101B8000700E0F6E150E106E6000A0F211F53EEC97
:101B90000FF02AEC10F024EC10F0FFEC0EF000092E
:101BA000D8B4D5EF0DF0D7EF0DF0DDEF0DF027EC49
:101BB00010F0C9EC0AF02AEC10F0EAEC0EF0000983
:101BC000D8B4E5EF0DF0E7EF0DF0CDEF0DF000012B
:101BD000A807CDEF0DF00DEF00F0016E4C50D8B41A
:101BE000F4EF0DF0F6EF0DF0EEEF0DF0ACB2FBEF11
:101BF0000DF0FDEF0DF002EF0EF0610004F4A3F222
:101C000018EF0EF0AC92320E3F24D96EDA6A050E50
:101C1000DA22610004F4DFF43F2A070E3F6413EF79
:101C20000EF015EF0EF017EF0EF0000E3F6E4C06A3
:101C3000AC821200000EBE6E000EBF6E000EC06EB3
:101C40003B0EC66E700EC76EC86804011069F00EB8
:101C5000086F130E006F000E096F000E016F000E6B
:101C6000116F000E026F000E0A6F000E126F370E1A
:101C7000036FF00E0B6F13693F0E046FF00E0C6FC5
:101C80001469100E0201106F050E726F12000C6EB7
:101C90000C380F0B086E096A010E0824F66E150E3B
:101CA0000920F76EF86A000EF82208006100D4F3EC
:101CB0000AF50C500F0B086E096A010E0824F66E27
:101CC000150E0920F76EF86A000EF8220800610070
:101CD000D4F30BF50A0E026E050E036E020E046EAF
:101CE00073EC0EF01200000E076E93EF0EF007502B
:101CF0000224056E000E0320066E610014F4F6F453
:101D0000610018F4F7F4000EF86E140EF76403D0B7
:101D10000800F55005D0F6C4E9F4F7C4EAF4EF5032
:101D2000EDEC0DF0072A0450075CD8A09AEF0EF0F6
:101D30009CEF0EF077EF0EF01200080E4C60A3EF50
:101D40000EF0A5EF0EF0BCEF0EF0320E3E24D96E71
:101D5000DA6A050EDA22DF500201A36F3E2A070E6F
:101D60003E64B5EF0EF0B7EF0EF0B9EF0EF0000ED7
:101D70003E6E4C2ABDEF0EF0AC921200B5904A5068
:101D80004B10D8B4C6EF0EF0C8EF0EF0D4EF0EF043
:101D900002D8D4EF0EF00500FA6E4A50FD6E4B509B
:101DA000FE6EFF6AFA501200120001500302610039
:101DB000CCF305F56100D0F306F501500402F350B1
:101DC000062602500302F350062605C501F506C596
:101DD00002F51200BDB6EFEF0EF0F2EF0EF0010EBD
:101DE000F3EF0EF0000E016E0150D8B4FAEF0EF0D2
:101DF000FCEF0EF0FDEF0EF0BD9601501200B6B6EE
:101E000004EF0FF007EF0FF0010E08EF0FF0000ED8
:101E1000016E0150D8B40FEF0FF011EF0FF012EF79
:101E20000FF0B6960150120030EC10F0A0EC0FF05D
:101E30001AEC0EF0AEEC0FF01DEC10F087EC0DF08C
:101E400082EC0FF091EC0FF0AAEC0CF0BCEC0FF070
:101E500012002A0E3D24D96EDA6A050EDA22A1C2DA
:101E6000DFF43D2A070E3D6438EF0FF03AEF0FF034
:101E70003CEF0FF0000E3D6E3B2A12000FC508F537
:101E800010C509F5000E0A6E44EC0DF0115047EC38
:101E90000EF08E0E026E150E036E020E046E73ECC3
:101EA0000EF0120001EE22F11E0EEE6AE806FDE1D0
:101EB0000401080E5D6F000E5E6F000E5F6F000183
:101EC000BDEF0DF0BE8421EC10F0000ECAEC0FF057
:101ED0004D0E0F6E150E106E6000A0F211F53EEC67
:101EE0000FF01200026ED5EC0FF00009D8B47BEFB2
:101EF0000FF07DEF0FF073EF0FF00250EBEC0FF0EF
:101F000003001200040E03012D6F000E2C6F000E53
:101F10002E6F9A0E2A6F000E296FBD96900E2B6FB2
:101F20001200040E0301206F000E1F6F000E216FC0
:101F3000F10E1D6F000E1C6FB696F90E1E6F12008B
:101F4000000E0001636F000E646F000E656F000EDF
:101F5000666F000E676F000E686F1200600E000162
:101F6000AD6F000EAF6F000EB36F080EB16F000EB5
:101F7000B06F000EAC6F1200380E0001A46F130E8C
:101F8000A56F800EA66F000EA76F000EA96F800EC2
:101F9000A36F1200026E02C501F5013A0001A551BE
:101FA00001188F0B0118A56F12000201B2BFDBEF01
:101FB0000FF0DEEF0FF0010EDFEF0FF0000E12005A
:101FC0000301E251046E036AE1510324016E000E25
:101FD0000420026E1200016E610004F4ECF30301B0
:101FE000F38FF3811200BE940001A397010ECAEC97
:101FF0000FF01200016E610004F4A8F0120001C598
:1020000046F502C547F5120001C548F502C549F578
:10201000120001C542F502C543F5120001C544F5A1
:1020200002C545F5120001C540F502C541F5120093
:1020300001C54AF502C54BF51200830E0301D76FA7
:1020400012000001A387120003012B8F120003016D
:102050001E9F120003011E8F120029EC0FF01200C8
:0A206000D69A1200120012001200BE
:020000040020DA
:10000000FF0FFF0FFF0FFF0FFF0FFF0FFF0FFF0F80
:10001000FF0FFF0FFF0FFF0FFF0FFF0FFF0FFF0F70
:020000040030CA
:0A0000008CFFF7FF9FFFFFFFFFFFDB
:00000001FF
