:040000005DEF00F0C0
:100008003508350835083508350835083508350800
:10001800F80735083508350835083508350835082E
:1000280050072E002E002E003508350835083508F3
:1000380035083508350835083508350835083508D0
:1000480035083508350835083508350835083508C0
:100058003508350835082E003508350835083508BF
:10006800FE073508350835083508350835082E00E7
:1000780035083508350835082E003508350835089F
:1000880035083508350835082E0035082E0035089E
:100098003508350835083508350835083508350870
:1000A80004082E002E0035083508350835083508AF
:0600B800FF007CEF0FF0D9
:1016000000D81A00000000AE2000005A1E2820005A
:1016100000000000000000000000000000000000CA
:101620000000000000000000008C1F701F541F000D
:10163000003031323334353637383941424344454E
:10164000467E1DBE200000000072200000AA1DCAB8
:1016500020C42000007C200000436F6E766572730A
:10166000696F6E206572726F723A20636F646520D5
:10167000004F504120496E2B2056616C75653A2011
:101680003078004F5041204F55542056616C75659D
:101690003A20307800466F726D6572204F6666732F
:1016A00065743A203078004F666673657420766101
:1016B0006C75653A20307800506F52204F66667323
:1016C00065743A203078004E6577204F6666736502
:1016D000743A203078000A0D0000000E236E000ED0
:1016E000226E000E246E000E266E000E256E9CECFF
:1016F0000FF01EEF0CF0030EE82EFED700F0390EAF
:101700008CEC0FF01FEC10F009C51EF50AC51FF593
:101710008D0E8CEC0FF01FEC10F009C51CF50AC5FE
:101720001DF51E501C5C206E1F501D58216E20C5DB
:101730000FF521C510F5250E116E050E126E51EC38
:101740000CF0276E2750D8A4A8EF0BF0AAEF0BF0EF
:10175000AEEF0BF0010E246E1EEF0CF00001A82975
:10176000D8A4B5EF0BF0B7EF0BF0C5EF0BF0275097
:10177000800A7F0FD8A0BFEF0BF0C1EF0BF0C5EFD1
:101780000BF0010E266E06EF0CF0A851D8A4CBEF9B
:101790000BF0CDEF0BF0D8EF0BF027BED4EF0BF032
:1017A000D2EF0BF0D8EF0BF0020E266E06EF0CF026
:1017B000A85127241A6EE86AD8B0E82A27BEE8069E
:1017C0001B6E1BBEEAEF0BF01B04D8A0EAEF0BF078
:1017D000ECEF0BF0EFEF0BF0A86906EF0CF0A8515F
:1017E00027241A6EE86AD8B0E82A27BEE8061B6EDE
:1017F0001BBEFFEF0BF0FDEF0BF003EF0CF0000E44
:10180000A86F06EF0CF02750A825A86F224A232ABC
:1018100022282310D8A40FEF0CF011EF0CF013EFD7
:101820000CF0030E266EAA0E2518D8A41AEF0CF0A1
:101830001CEF0CF01EEF0CF0040E266E2650D8A400
:1018400024EF0CF026EF0CF02EEF0CF02450D8B45F
:101850002CEF0CF02EEF0CF07BEF0BF02AEC10F0DD
:101860002650D8B436EF0CF038EF0CF040EF0CF007
:10187000590E176E160E186E26C519F542EC0FF0AC
:10188000C70E176E160E186EA8C019F542EC0FF0B1
:10189000D60E0A6E160E0B6E020E0C6E18EC0EF0C3
:1018A000120010BE58EF0CF056EF0CF099EF0CF050
:1018B0000FC509F510C50AF5FF0E0C6E0B6856EC46
:1018C0000FF009C50FF50AC510F510BE71EF0CF049
:1018D000105009E10B0E0F5CD8A071EF0CF073EF04
:1018E0000CF077EF0CF0F60E146E8AEF0CF010BED1
:1018F00083EF0CF0105009E1060E0F5CD8A083EFC7
:101900000CF085EF0CF089EF0CF0FE0E146E8AEFF0
:101910000CF0146811C5D9F412C5DAF4DF50136E57
:10192000D890133411C5D9F412C5DAF4DF6ECCEFB8
:101930000CF010BEA5EF0CF0105009E10B0E0F5C7F
:10194000D8A0A5EF0CF0A7EF0CF0ABEF0CF00A0E4F
:10195000146EBFEF0CF010BEB7EF0CF0105009E1A1
:10196000060E0F5CD8A0B7EF0CF0B9EF0CF0BDEF8E
:101970000CF0020E146EBFEF0CF0010E146E11C5C8
:10198000D9F412C5DAF4DF50136ED880133411C5C0
:10199000D9F412C5DAF4DF6E10BEDAEF0CF0105095
:1019A00007E1020E0F5CD8B0D8EF0CF0DAEF0CF0C4
:1019B000DCEF0CF0000E146E14501200000E166EC8
:1019C000000E156EFFEF0CF02DEC0FF00009D8B4EF
:1019D000ECEF0CF0EEEF0CF0FFEF0CF015501024D4
:1019E000136E16501120146E13C5F6F414C5F7F4D7
:1019F000F86A0800F55057EC10F0154A162A1550F1
:101A00001024136E16501120146E13C5F6F414C56D
:101A1000F7F4F86A0800F5500009D8A412EF0DF0A9
:101A200014EF0DF0E4EF0CF01250D8A41AEF0DF003
:101A30001CEF0DF01EEF0DF026EF0DF0D60E0A6E26
:101A4000160E0B6E020E0C6E18EC0EF01200000E4D
:101A5000BE6E000EBF6E000EC06E3B0EC66E700EE8
:101A6000C76EFB0EC86E330E0401006F700E086F58
:101A70001069000E016F000E096F000E116F000E4D
:101A80000201876F000E866F000E0401026F000EC8
:101A90000A6F000E126F370E036FF00E0B6F136993
:101AA0003F0E046FF00E0C6F1469100E0201106FE0
:101AB000000E0401056F000E066F000E076F000E8A
:101AC0000D6F000E0E6F000E0F6F000E156F000EE3
:101AD000166F000E176F1200000E0201A16F000EAC
:101AE000A26F000EA36F000EA46F000EA56F000E74
:101AF000A66F000EA76F000EA86F000EA96F000E54
:101B0000AA6F300EAB6F800EAC6F080EAD6F190E62
:101B1000AE6F000EAF6F200EB06F000EB16F000EF3
:101B2000B26F000EB36F000E096E000E0A6EC6ECA7
:101B30000FF0000E096E000E0A6EB8EC0FF0000EEA
:101B4000096E000E0A6EAAEC0FF0000E2F6E000E4A
:101B50002E6E1200D68A000ED6BE010E0B6ED69ED9
:101B6000550E0401596FAA0E596F5991000E5F6FFF
:101B7000000E5E6F080E5D6F550E596FAA0E596FFD
:101B800059810BB002D0D69E01D0D68E0301698157
:101B9000B490D680D60E096E200E0A6E4DEC10F071
:101BA000B990D682D80E096E200E0A6E48EC10F05D
:101BB000BD90D684DA0E096E200E0A6E43EC10F04A
:101BC0001200000E0301D96F000EDA6F000EDB6FFA
:101BD000000EDC6F000EDF6F000EE06F000EE56F91
:101BE000200EE76F000EEC6F200EEE6F000EEF6F11
:101BF000000EF06F000EF16F000EF26F000EF46F2A
:101C0000530EF56F070EF66F000EF76F030EF86FA9
:101C1000000EF96F000EFA6F940EF36FB494B59046
:101C2000D00E096E200E0A6E52EC10F0AA8012003F
:101C3000000E0F6E40EF0EF02DEC0FF00009D8B43F
:101C400024EF0EF026EF0EF040EF0EF00F500A24B6
:101C50000D6E000E0B200E6E0DC5F6F40EC5F7F4DA
:101C6000000EF86E150EF76403D00800F55005D08D
:101C7000F6C4E9F4F7C4EAF4EF5057EC10F00F2A79
:101C80000C500F5CD8A047EF0EF049EF0EF01CEFA0
:101C90000EF0120069EC0FF0D68ED68CB80E176ECF
:101CA000160E186EA8C019F542EC0FF065EC10F096
:101CB0005FEC10F0B6A65FEF0EF061EF0EF068EF8C
:101CC0000EF0B69662EC10F06DEC0BF065EC10F0D7
:101CD000BDA66DEF0EF06FEF0EF05AEF0EF0BD9651
:101CE0000001A8075AEF0EF05DEF00F0146E1438F3
:101CF0000F0B106E116A310E1024F66E160E1120A5
:101D0000F76EF86A000EF8220800F5C412F51450B8
:101D10000F0B106E116A310E1024F66E160E112084
:101D2000F76EF86A000EF8220800F5C413F5120EDB
:101D30000A6E050E0B6E020E0C6E18EC0EF0120001
:101D4000FAC401F5FBC402F5B5903A503B10D8B483
:101D5000ACEF0EF0AEEF0EF0BAEF0EF002D8BAEF25
:101D60000EF00500FA6E3A50FD6E3B50FE6EFF6AB3
:101D7000FA50120002C5FBF401C5FAF41100040E7A
:101D800003012D6F000E2C6F000E2E6F130E2A6FA5
:101D9000000E296F000E096E000E0A6E39EC10F06D
:101DA000BD96C00E03012B6F1200040E0301206FBD
:101DB000000E1F6F000E216FA10E1D6F000E1C6F15
:101DC000000E096E000E0A6E3EEC10F0B696FE0E86
:101DD00003011E6F120034503510D8B4F2EF0EF02C
:101DE000F4EF0EF000EF0FF002D800EF0FF0050057
:101DF000FA6E3450FD6E3550FE6EFF6AFA501200D6
:101E0000120032503310D8B408EF0FF00AEF0FF081
:101E100016EF0FF002D816EF0FF00500FA6E3250F1
:101E2000FD6E3350FE6EFF6AFA5012001200305001
:101E30003110D8B41EEF0FF020EF0FF02CEF0FF0A1
:101E400002D82CEF0FF00500FA6E3050FD6E3150C5
:101E5000FE6EFF6AFA5012001200000E096E0201B7
:101E6000B0AB35EF0FF037EF0FF040EF0FF0ABAB4B
:101E70003CEF0FF03EEF0FF040EF0FF0010E096E58
:101E80000950120017C510F518C511F5000E126E95
:101E9000DEEC0CF0195076EC0EF0D60E0A6E160E33
:101EA0000B6E020E0C6E18EC0EF0120009500B02B5
:101EB000F3C40DF5F4C40EF509500C02F3500E26D0
:101EC0000A500B02F3500E260DC509F50EC50AF592
:101ED0001200E2EC0FF027EC0DF0E1EC0DF05BEC02
:101EE00010F0D4EC0FF0D5EC0EF0BFEC0EF06CEC73
:101EF0000DF0AAEC0DF0120001EE28F10E0EEE6AC4
:101F0000E806FDE10401080E5D6F000E5E6F000E35
:101F10005F6F00014AEF0EF00A6E14EC10F000093A
:101F2000D8B495EF0FF097EF0FF08DEF0FF00A5048
:101F300032EC10F003001200BE840001A3878F0E64
:101F4000A517950E176E160E186EA8C019F542EC5F
:101F50000FF0120009500A10D8B4B1EF0FF0B3EF30
:101F60000FF0B7EF0FF009C528F50AC529F51200E3
:101F700009500A10D8B4BFEF0FF0C1EF0FF0C5EF52
:101F80000FF009C52AF50AC52BF5120009500A10F1
:101F9000D8B4CDEF0FF0CFEF0FF0D3EF0FF009C5AE
:101FA0002CF50AC52DF51200380E0001A46F130E92
:101FB000A56F800EA66F000EA76F000EA96F800E92
:101FC000A36F1200600E0001AD6F000EAF6F000E28
:101FD000B36F020EB16F000EB06F000EAC6F120047
:101FE000FAC403F5FBC404F5B490EBEC0EF004C5A1
:101FF000FBF403C5FAF41100FAC405F5FBC406F5B9
:10200000B99001EC0FF006C5FBF405C5FAF4110018
:10201000FAC407F5FBC408F5BD9017EC0FF008C52E
:10202000FBF407C5FAF411000201B2BF1AEF10F079
:102030001DEF10F0010E1EEF10F0000E1200030154
:10204000E2510C6E0B6AE1510B24096E000E0C205C
:102050000A6E1200BE940001A397A5518F0B1009C0
:10206000A56F1200096E09C5ECF30301F38FF3812C
:10207000120009C536F50AC537F5120009C538F54D
:102080000AC539F5120009C530F50AC531F5120047
:1020900009C532F50AC533F5120009C534F50AC57C
:1020A00035F5120009C53AF50AC53BF51200096E6F
:1020B00009C5A3F21200C30E0301D76F120003017A
:1020C0002B8F120003011E9F120003011E8F1200AE
:0220D0001200FC
:0820D4001100120012001200BD
:020000040020DA
:10000000FF0FFF0FFF0FFF0FFF0FFF0FFF0FFF0F80
:10001000FF0FFF0FFF0FFF0FFF0FFF0FFF0FFF0F70
:10002000FF0FFF0FFF0FFF0FFF0FFF0FFF0FFF0F60
:10003000FF0FFF0FFF0FFF0FFF0FFF0FFF0FFF0F50
:020000040030CA
:090000008CFFFFFF9FFFFFFFFFD3
:00000001FF
