:040000005DEF00F0C0
:100008005E075E075E075E075E075E075E075E07C0
:1000180005075E075E075E075E075E075E075E0709
:10002800B2062E002E002E005E075E075E075E07F2
:100038005E075E075E075E075E075E075E075E0790
:100048005E075E075E075E075E075E075E075E0780
:100058005E075E075E072E005E075E075E075E07A7
:100068000B075E075E075E075E075E075E072E00EA
:100078005E075E075E075E072E005E075E075E0787
:100088005E075E075E075E072E005E072E005E07AE
:100098005E075E075E075E075E075E075E075E0730
:1000A80011072E002E005E075E075E075E075E07DB
:0600B800FF00EAEF0CF06E
:1016000000436F6E76657273696F6E206572726FDC
:10161000723A20636F646520004F504120496E2B61
:101620002056616C75653A203078004F5041204F4C
:1016300055542056616C75653A20307800466F72BB
:101640006D6572204F66667365743A203078004F7E
:1016500066667365742076616C75653A2030780033
:10166000506F52204F66667365743A203078004E92
:101670006577204F66667365743A203078000A0DEE
:1016800000001F6A206A216A236A226A39EC0EF080
:1016900056D0030EE82EFED700F0390E43EC0EF0C4
:1016A0002EEC0EF009C51BF50AC51CF58D0E43EC9A
:1016B0000EF02EEC0EF009C519F50AC51AF51B50EF
:1016C000195C1D6E1C501A581E6E1DC50FF51EC5E7
:1016D00010F5220E116E050E126EC0EC0BF0246E8A
:1016E000245003E1010E216E2AD00001A82906E151
:1016F0002450800A7F0F02E3010E05D0A85105E1B6
:1017000024AE03D0020E236E0ED030D818BE04D003
:10171000180402E3A86907D029D818AE02D0A86B34
:1017200002D02450A8271F4A202A1F28201002E197
:10173000030E236EAA0E221802E1040E236E23501C
:1017400002E12150A6E07AEC0EF0235006E0010EF3
:10175000156E23C516F57CEC0DF06F0E45EC0DF003
:101760007CEC0DF087EC0DF0C6EF0CF0A8512424B2
:10177000176EE86AD8B0E82A24BEE806186E120090
:1017800010AE25D00FC509F510C50AF50C680B6819
:1017900090EC0DF009C50FF50AC510F510BE07D085
:1017A000105003E10B0E0F5C02E3F60E08D010BEE2
:1017B00008D0105003E1060E0F5C03E3FE0E146E1A
:1017C00001D0146829D8DF50136ED89018D010BEFD
:1017D00007D0105003E10B0E0F5C02E30A0E0AD093
:1017E00010BE07D0105003E1060E0F5C02E3020E9C
:1017F00001D0010E146E10D8DF50136ED880133450
:101800000BD8DF6E10BE05D0105004E1020E0F5C45
:1018100001E2146A1450120011C5D9F412C5DAF4A9
:101820001200D68A000ED6BE010E0B6ED69E550E45
:101830000401596FAA0E596F59915F6B5E6B080EC8
:101840005D6F550E596FAA0E596F59810BB002D0BA
:10185000D69E01D0D68E03016981B490D6807A0ECF
:10186000096E1D0E0A6E9DEC0EF0B990D6827C0EAC
:10187000096E1D0E0A6E98EC0EF0BD90D6847E0E99
:10188000096E1D0E0A6E93EF0EF0BE6ABF6AC06A43
:101890003B0EC66E700EC76EFB0EC86E330E040193
:1018A000006F700E086F1069016B096B116B0201FC
:1018B000876B866B0401026B0A6B126B370E036F2A
:1018C000F00E0B6F13693F0E046FF00E0C6F14696E
:1018D000100E0201106F0401056B066B076B0D6B98
:1018E0000E6B0F6B156B166B176B12000201A16B61
:1018F000A26BA36BA46BA56BA66BA76BA86BA96B64
:10190000AA6B300EAB6F800EAC6F080EAD6F190E68
:10191000AE6FAF6B200EB06FB16BB26BB36B096A79
:101920000A6A69EC0EF0096A0A6A60EC0EF0000EB1
:10193000096A0A6ABAEC0EF0396A3A6A12000301BF
:10194000D96BDA6BDB6BDC6BDF6BE06BE56B200E6E
:10195000E76FEC6B200EEE6FEF6BF06BF16BF26BE1
:10196000F46B530EF56F070EF66FF76B030EF86FFF
:10197000F96BFA6B940EF36FB494B590760E096E12
:101980001D0E0A6EA2EC0EF0AA8012000F6A1ED085
:1019900057EC0EF000091AE00F500A240D6E000EED
:1019A0000B200E6E0DC5F6F40EC5F7F4000EF86EA2
:1019B000150EF76403D00800F55005D0F6C4E9F41D
:1019C000F7C4EAF4EF50A7EC0EF00F2A0C500F5CAE
:1019D000DFE31200E40EF66E1C0EF76E000EF86EDA
:1019E00001EE25F110EE10F00900F5C4EEF4E5501B
:1019F000E150FAE101EE35F10C0EEE6AE806FDE188
:101A00000401080E5D6F000E5E6F000E5F6F000137
:101A10002AEF0DF0136A146A09D057EC0EF0000992
:101A200005E00DD8A7EC0EF0134A142A08D8F5E10A
:101A3000115001E1120087EC0DF0C6EF0CF01050D0
:101A40001324126E12C5F6F4160EF76EF86A08002B
:101A5000F5501200A3EC0DF0D68ED68C600E15D882
:101A60007CEC0DF0B2EC0EF0B8EC0EF0B6A607D0A0
:101A7000B696AFEC0EF041EC0BF0B2EC0EF0BDA65A
:101A8000F5D7BD960001A807F1D7156EA8C016F5C9
:101A90001200146E14380CD8126E145009D8136E3C
:101AA000120E0A6E050E0B6E020E0C6EC6EF0CF0D7
:101AB0000F0B106E116A250E1024D96E050E112021
:061AC000DA6EDF50120097
:101AC800FAC401F5FBC402F5B590455046100BE089
:101AD80001D809D00500FA6E4550FD6E4650FE6EDD
:101AE800FF6AFA50120002C5FBF401C5FAF41100AE
:101AF80015C510F5116A0AEC0DF0165049EC0DF0F9
:101B080002D8C6EF0CF07E0E0A6E0A50D8A4160E44
:101B18000B6E020E0C6E020C09500B02F3C40DF58D
:101B2800F4C40EF509500C02F3500E260A500B02AD
:101B3800F3500E260DC509F50EC50AF512004DEC39
:101B48000EF045EC0CF09FEC0CF0B5EC0EF0FDEC53
:101B58000DF0B5EC0DF0C6EC0DF076EC0CF011EFD5
:101B68000CF0040E0301206F1F6B216BA10E1D6F7B
:101B78001C6B000E096A0A6A8EEC0EF0B696FE0E11
:101B88001E6FFE0C040E2D6F2C6B2E6B130E2A6F1E
:101B9800296B000E096A0A6A89EC0EF0BD96C00E20
:101BA8002B6FC00C3F504010D8B412000500FA6EDD
:101BB8003F50FD6E4050FE6EFF6AFA5012003D50D5
:101BC8003E10D8B412000500FA6E3D50FD6E3E502E
:101BD800FE6EFF6AFA5012003B503C10D8B4120057
:101BE8000500FA6E3B50FD6E3C50FE6EFF6AFA50DF
:101BF8001200380E0001A46F130EA56F800EA66F99
:0A1C0800A76BA96B800EA36F800C80
:101C1400FAC403F5FBC404F5B490D6EC0DF004C586
:101C2400FBF403C5FAF41100FAC405F5FBC406F588
:101C3400B990E3EC0DF006C5FBF405C5FAF4110008
:101C4400FAC407F5FBC408F5BD90F0EC0DF008C527
:101C5400FBF407C5FAF411000301E2510C6E0B6AA0
:101C6400E1510B24096E000E0C200A6E1200BE8492
:101C74000001A3878F0EA5173D0E45EC0DF07CEFF8
:101C84000DF00A6EABEC0EF00009FCE00A5082EC99
:101C94000EF003001200600E0001AD6FAF6BB36B6A
:101CA400020EB16FB06BAC6B1200096A0201B0BBDB
:101CB400ABAB02D0010E096E0950120009500A1094
:101CC400D8B4120009C535F50AC536F51200095015
:101CD4000A10D8B4120009C537F50AC538F5120040
:101CE400303132333435363738394142434445464E
:101CF400BE940001A397A5518F0B1009A56F120084
:101D0400096E09C5ECF30301F38FF381120009C5D1
:101D140041F50AC542F5120009C543F50AC544F563
:101D2400120009C53BF50AC53CF5120009C53DF58D
:101D34000AC53EF5120009C53FF50AC540F5120073
:101D440009C545F50AC546F51200096E09C5A3F291
:101D540012000201B2BF010C000C03011E9F12000D
:101D640003011E8F1200C30ED76FC30C2B8F1200FA
:0C1D7400120012001100120012001200F8
:020000040020DA
:10000000FF0FFF0FFF0FFF0FFF0FFF0FFF0FFF0F80
:10001000FF0FFF0FFF0FFF0FFF0FFF0FFF0FFF0F70
:10002000FF0FFF0FFF0FFF0FFF0FFF0FFF0FFF0F60
:10003000FF0FFF0FFF0FFF0FFF0FFF0FFF0FFF0F50
:020000040030CA
:090000008CFFFFFF9FFFFFFFFFD3
:00000001FF
