:020000040000FA
:040000000DEF00F010
:04000800ABEF0CF05E
:06001800FF008DEF0DF06A
:10150000003031323334353637383941424344457F
:1015100046436F6E76657273696F6E206572726F87
:10152000723A20636F646520004F504120496E2B52
:101530002056616C75653A203078004F5041204F3D
:1015400055542056616C75653A20307800466F72AC
:101550006D6572204F66667365743A203078004F6F
:1015600066667365742076616C75653A2030780024
:10157000506F52204F66667365743A203078004E83
:101580006577204F66667365743A203078000A0DDF
:101590000000376A386A396A3B6A3A6A3BEC0DF0F8
:1015A00061D0350EE82EFED700F0390EE7EC0DF0D5
:1015B000C6EC0DF01FC533F520C534F58D0EE7ECF4
:1015C0000DF0C6EC0DF01FC531F520C532F53350D6
:1015D000315C356E34503258366E35C525F536C51A
:1015E00026F53A0E276E050E286E56EC0BF03C6E73
:1015F0003C5003E1010E396E35D00001A82906E107
:101600003C50800A7F0F02E3010E05D0A85105E18E
:101610003CAE03D0020E3B6E19D03BD830BE07D093
:10162000300405E3FF0E07D01F6E06D00FD031D86F
:1016300030AE06D0000EF8D761007CF4A8F006D0DA
:101640003C50A8251F6E61007CF4A8F0374A382A68
:101650003728381002E1030E3B6EAA0E3A1802E159
:10166000040E3B6E3B5002E139509BE00DEC0EF056
:101670003B5006E0110E2B6E3BC52CF565EC0DF0D2
:101680007F0EE9EC0CF065EC0DF070EC0DF089EFDD
:101690000CF03CC52DF52E6A2DBE2E06A8512F6EDE
:1016A000306A2D502F262E503022120026AE25D023
:1016B00025C51FF526C520F52268216850EC0DF0E0
:1016C0001FC525F520C526F526BE07D0265003E107
:1016D0000B0E255C02E3F60E08D026BE08D026507D
:1016E00003E1060E255C03E3FE0E2A6E01D02A6894
:1016F00029D8DF50296ED89018D026BE07D02650A2
:1017000003E10B0E255C02E30A0E0AD026BE07D0C9
:10171000265003E1060E255C02E3020E01D0010E05
:101720002A6E10D8DF50296ED88029340BD8DF6E8E
:1017300026BE05D0265004E1020E255C01E22A6A8D
:101740002A50120061009CF4D9F46100A0F4DAF48C
:101750001200AC90CE0E1F6E170E206E2AEC0EF00B
:10176000AC92480E1F6E1A0E206E25EC0EF0020190
:10177000A56BA66BA76BA86BA96BAA6BA00EAB6F32
:10178000800EAC6FAD6B820EAE6F060EAF6FB06B9E
:10179000B16BB26BB36BB00E1F6E1C0E206E34ECCF
:1017A0000EF0AE0E1F6E1C0E206E2FEC0EF0AA0E69
:1017B0001F6E1C0E206E39EC0EF0196A1E6A1D6A2F
:1017C000080E496E1C6A1B6A1A6AAC8012002FD878
:1017D000DF6A0201B2A70DD02AD8DF8201D809D072
:1017E0000500FA6E4150FD6E4250FE6EFF6AFA50DF
:1017F00012000201B2A30DD01AD8DF8401D809D09B
:101800000500FA6E3F50FD6E4050FE6EFF6AFA50C2
:1018100012000DD8DF5002E19DEF0DF00500FA6EC9
:101820003D50FD6E3E50FE6EFF6AFA501200010EF2
:101830001C24D96EDA6A050EDA221200BE6ABF6A6B
:10184000C06A3B0EC66E700EC76EC8680401106990
:10185000F00E086F130E006F096B016B116B026BBA
:101860000A6B126B370E036FF00E0B6F13693F0E8E
:10187000046FF00E0C6F1469100E0201106F050E4C
:10188000726F050CD96BDA6BDB6BDC6BDF6BE06BBB
:10189000E56B200EE76FEC6B200EEE6FEF6BF06BDD
:1018A000F16BF26BF46B530EF56F070EF66FF76B7F
:1018B000030EF86FF96BFA6B940EF36FB590AA8074
:1018C000B20E1F6E1C0E206E3EEF0EF02A6E2AC561
:1018D00026F5263A11D86100D4F328F52AC526F555
:1018E0000BD86100D4F329F5280E206E050E216E69
:1018F000020E226E89EF0CF00F0E26162650010FF5
:10190000276E61009CF4F6F4150EF76EF86A080075
:101910001200256A1CD025502024236E000E2120A1
:10192000246E61008CF4F6F4610090F4F7F4000E7C
:10193000F86E140EF76403D00800F55005D0F6C415
:10194000D9F4F7C4DAF4DF500BEC0DF0252A22505D
:10195000255CE1E31200ACB2B7A20BD001D81100B4
:101960000500FA6E4350FD6E4450FE6EFF6AFA5059
:101970001200ACB0B7A00BD001D811000500FA6E70
:101980004550FD6E4650FE6EFF6AFA501200AAB036
:10199000B5A01100ACEC0DF0110079EC0DF0D68E75
:1019A000700E17D865EC0DF04EEC0EF051EC0EF009
:1019B00004EC0EF0000906E04BEC0EF0C9EC0AF066
:1019C0004EEC0EF0FBEC0DF00009F2E00001A80770
:1019D000EFD72B6E6000A0F22CF51200296A2A6A5C
:1019E00005D00DD80BEC0DF0294A2A2A08D8F9E1C8
:1019F000275001E1120070EC0DF089EF0CF0265039
:101A00002924286E6100A0F4F6F4150EF76EF86A2A
:101A10000800F55012001F6E4950FEE0ACB204D031
:101A200061007CF4A3F20ED0AC92110E1E2436ECB1
:101A30000DF061007CF4DFF41E2A070E1E6401D055
:101A40001E6A4906AC821200080E49600DD0110EC4
:101A50001D240CD8DF500201A36F1D2A070E1D6440
:101A600001D01D6A492A1200AC921200D96EDA6ABE
:101A7000050EDA221200BE840001A387000E206E3C
:101A800005D84D0EE9EC0CF065EF0DF020C51FF503
:101A90001F3A0001A5511F188F0B1F18A56F1200C8
:101AA0001F5021026100CCF323F56100D0F324F52F
:101AB0001F502202F350242620502102F3502426E6
:101AC00023C51FF524C520F512002BC526F5276A6E
:101AD000EEEC0CF02C5066EC0CF002D889EF0CF018
:101AE0008E0E206E2050D8A4150E216E020E226E8E
:101AF000020C53EC0EF01DEC0EF01EEC0CF0F1ECB1
:101B00000DF047EC0EF042EC0CF0D1EC0DF0DCECFB
:101B10000DF0A9EC0BF0BAEF0DF001EE01F11E0E85
:101B2000EE6AE806FDE10401080E5D6F000E5E6FCF
:101B3000000E5F6F0001CDEF0CF0090E1C24D96E72
:101B4000DA6A050EDA22A1C2DFF41C2A070E1C6431
:101B500001D01C6A1A2A1200B59047504810D8B418
:101B600012000500FA6E4750FD6E4850FE6EFF6A87
:101B7000FA501200380E0001A46F130EA56F800EEC
:101B8000A66FA76BA96B800EA36F800C0301E251B7
:101B9000226E216AE15121241F6E000E2220206E48
:101BA0001200040E2D6F2C6B2E6B9A0E2A6F296B70
:101BB000BD96900E2B6F900C040E206F1F6B216B47
:101BC000F10E1D6F1C6BB696F90E1E6FF90C206E90
:101BD00043EC0EF00009FCE0205015EC0EF0030081
:101BE0001200600E0001AD6FAF6BB36B080EB16FEA
:101BF000B06BAC6B1200010EBDA6000E1F6E1F5025
:101C000001E0BD961F501200010EB6A6000E1F6E19
:101C10001F5001E0B6961F501200BE940001A3971A
:101C2000010E206E46EC0DF012001F6E61007CF478
:101C3000ECF30301F38FF38112000001636B646B1B
:101C4000656B666B676B686B12001FC543F520C53B
:101C500044F512001FC545F520C546F512001FC505
:101C60003FF520C540F512001FC541F520C542F5DE
:101C700012001FC53DF520C53EF512001FC547F5F2
:101C800020C548F512000201B2BF010C000C830E02
:101C90000301D76F830C03011E9F120003011E8FE7
:101CA00012002B8F1200D69A12009DEF0DF0120039
:041CB000120012000C
:020000040020DA
:10000000FF0FFF0FFF0FFF0FFF0FFF0FFF0FFF0F80
:10001000FF0FFF0FFF0FFF0FFF0FFF0FFF0FFF0F70
:020000040030CA
:0A0000008CFFF7FF9FFFFFFFFFFFDB
:00000001FF
