:020000040000FA
:040000005DEF00F0C0
:1000080064076407640764076407640764075E0796
:1000180053076407ED066407640764076407640709
:10002800F5062E002E002E00640764076407640797
:100038006407640764076407640764076407640760
:100048006407640764076407640764076407640750
:100058006407640764072E0064076407640764077D
:1000680055076407640764076407640764072E007C
:1000780064076407640764072E006407640764075D
:1000880064076407640764072E0064072E0064078A
:100098006407640764076407640764076407640700
:1000A80057072E002E006407640764076407640777
:0600B800FF00AAEF0DF0AD
:10160000003031323334353637383941424344457E
:1016100046436F6E76657273696F6E206572726F86
:10162000723A20636F646520004F504120496E2B51
:101630002056616C75653A203078004F5041204F3C
:1016400055542056616C75653A20307800466F72AB
:101650006D6572204F66667365743A203078004F6E
:1016600066667365742076616C75653A2030780023
:10167000506F52204F66667365743A203078004E82
:101680006577204F66667365743A203078000A0DDE
:101690000000386A396A3A6A3C6A3B6A44EC0EF0E8
:1016A00056D0030EE82EFED700F0390E4EEC0EF0A9
:1016B00039EC0EF020C534F521C535F58D0E4EEC14
:1016C0000EF039EC0EF020C532F521C533F534505B
:1016D000325C366E35503358376E36C526F537C511
:1016E00027F53B0E286E050E296ECBEC0BF03D6EF8
:1016F0003D5003E1010E3A6E2AD00001A82906E10F
:101700003D50800A7F0F02E3010E05D0A85105E18C
:101710003DAE03D0020E3C6E0ED030D831BE04D0A8
:10172000310402E3A86907D029D831AE02D0A86BF2
:1017300002D03D50A827384A392A3828391002E10A
:10174000030E3C6EAA0E3B1802E1040E3C6E3C50A8
:1017500002E13A50A6E058EC0EF03C5006E0110EC3
:101760002C6E3CC52DF585EC0DF07F0E2CEC0DF0AC
:1017700085EC0DF090EC0DF031EF0DF03DC52EF540
:101780002F6A2EBE2F06A851306E316A2E50302699
:101790002F503122120027AE25D026C520F527C5AF
:1017A00021F52368226870EC0DF020C526F521C5CF
:1017B00027F527BE07D0275003E10B0E265C02E376
:1017C000F60E08D027BE08D0275003E1060E265C8F
:1017D00003E3FE0E2B6E01D02B6829D8DF502A6E52
:1017E000D89018D027BE07D0275003E10B0E265CF7
:1017F00002E30A0E0AD027BE07D0275003E1060EE7
:10180000265C02E3020E01D0010E2B6E10D8DF50D1
:101810002A6ED8802A340BD8DF6E27BE05D0275019
:1018200004E1020E265C01E22B6A2B5012006100DB
:10183000A0F4D9F46100A4F4DAF41200AC90000E24
:10184000206A216AC3EC0EF0AC92000E206A216A75
:10185000C2EC0EF0AC94000E206A216AC4EC0EF0CB
:10186000AC96000E206A216AC1EC0EF00201A16B59
:10187000A26BA36BA46BA56BA66BA76BA86BA96BE4
:10188000AA6B200EAB6F800EAC6FAD6B190EAE6FF6
:10189000AF6BB06BB16BB26BB36B000E206A216A99
:1018A00074EC0EF0000E206A216A6FEC0EF0000E50
:1018B000206A216A79EC0EF0196A1200D68A000EAD
:1018C000D6BE010E226ED69E550E0401596FAA0E89
:1018D000596F59915F6B5E6B080E5D6F550E596FB6
:1018E000AA0E596F598122B002D0D69E01D0D68E51
:1018F00003016981B490D680940E206E1D0E216E76
:1019000092EC0EF0B990D682960E206E1D0E216ECE
:101910008DEC0EF0BD90D684980E206E1D0E216EBB
:1019200088EF0EF0BE6ABF6AC06A3B0EC66E700ECC
:10193000C76EFB0EC86E0401006B086B106B016B69
:10194000096B116B026B0A6B126B370E036FF00E93
:101950000B6F13693F0E046FF00E0C6F1469110EBC
:101960000201496F100E106F0401056B066B076BC7
:101970000D6B0E6B0F6B156B166B176B1200030163
:10198000D96BDA6BDB6BDC6BDF6BE06BE56B200E2E
:10199000E76FEC6B200EEE6FEF6BF06BF16BF26BA1
:1019A000F46B530EF56F070EF66FF76B030EF86FBF
:1019B000F96BFA6B940EF36FB4948A0E206E1D0EC1
:1019C000216E9CEC0EF0B5908C0E206E1D0E216EDB
:1019D00097EC0EF0AA8012002B6E2BC527F5273A44
:1019E00011D86100D4F329F52BC527F50BD8610078
:1019F000D4F32AF5290E216E050E226E020E236EF7
:101A000031EF0DF00F0E27162750010F286E6100E1
:101A1000A0F4F6F4160EF76EF86A08001200BAEC9D
:101A20000DF02DEC0EF0D68ED68C700E15D885EC00
:101A30000DF0B5EC0EF0BFEC0EF0B6A607D0B696E2
:101A4000B2EC0EF049EC0BF0B5EC0EF0BDA6F5D7FC
:101A5000BD960001A807F1D72C6E6000A0F22DF50D
:101A60001200266A1CD026502124246E000E22204B
:101A7000256E610090F4F6F4610094F4F7F4000E22
:101A8000F86E150EF76403D00800F55005D0F6C4C3
:101A9000E9F4F7C4EAF4EF5068EC0EF0262A23507C
:101AA000265CE1E312002A6A2B6A05D00DD868ECA7
:101AB0000EF02A4A2B2A08D8F9E1285001E1120039
:101AC00090EC0DF031EF0DF027502A24296E6100C3
:101AD000A4F4F6F4160EF76EF86A0800F55012003A
:101AE000205022026100CCF324F56100D0F325F5EB
:101AF00020502302F350252621502202F3502526A0
:101B000024C520F525C521F512002CC527F5286A26
:101B100053EC0DF02D50ECEC0CF002D831EF0DF041
:101B20008E0E216E2150D8A4160E226E020E236E48
:101B3000020C040E03012D6F2C6B2E6B130E2A6FFB
:101B4000296B000E206A216A7EEC0EF0BD96C00E55
:101B50002B6FC00C01EE01F11F0EEE6AE806FDE1ED
:101B60000401080E5D6F000E5E6F000E5F6F0001D6
:101B70000FEF0DF099EC0DF01EEC0CF0F9EC0DF000
:101B8000BFEC0CF05EEC0CF0CAEC0DF0B8EC0EF013
:101B900092EF0CF0040E206F1F6B216BA10E1D6FD6
:101BA0001C6B000E206A216A83EC0EF0B696FE0EC6
:101BB0001E6FFE0CB49450505110D8A401D81100DF
:101BC0000500FA6E5050FD6E5150FE6EFF6AFA50DD
:021BD000120001
:101BD400B5904E504F10D8A401D811000500FA6EEC
:101BE4004E50FD6E4F50FE6EFF6AFA501200600EAA
:101BF4000001AD6F700EAE6FAF6BB36B020EB16FC1
:101C0400B26BB06BAC6B12004C504D10D8B41200D8
:101C14000500FA6E4C50FD6E4D50FE6EFF6AFA5090
:101C240012004A504B10D8B412000500FA6E4A5004
:101C3400FD6E4B50FE6EFF6AFA5012004850491078
:101C4400D8B412000500FA6E4850FD6E4950FE6E7D
:101C5400FF6AFA5012000001A36B390EA46F130E31
:101C6400A56F800EA66FA76BA96BA38F120003014B
:101C7400E251236E226AE1512224206E000E2320B9
:101C8400216E1200BE840001A3878F0EA5174D0E8E
:101C94002CEC0DF085EF0DF0216EA1EC0EF0000997
:101CA400FCE0215060EC0EF003001200BE94000131
:101CB400A397A5518F0B1009A56F1200206E610028
:101CC40080F4ECF30301F38FF3811200206EB7A2CA
:101CD400FED7610080F4A3F2120020C540F521C5AF
:101CE40041F5120020C542F521C543F5120020C577
:101CF4003EF521C53FF5120020C544F521C545F543
:101D0400120020C546F521C547F5120020C548F547
:101D140021C549F5120020C54AF521C54BF512002D
:101D240020C54CF521C54DF5120020C54EF521C541
:101D34004FF5120020C550F521C551F512000201DE
:061D4400B2BF010C000C0F
:101D4C00B49006EC0EF01100B99013EC0EF01100EB
:101D5C00BD9020EC0EF0110003011E9F1200030138
:0A1D6C001E8F1200C30ED76FC30CC8
:101D7800C9EC0EF011002B8F120012001200120095
:061D88001200120012001F
:0A1D900011001200120012001200F0
:020000040020DA
:10000000FF0FFF0FFF0FFF0FFF0FFF0FFF0FFF0F80
:10001000FF0FFF0FFF0FFF0FFF0FFF0FFF0FFF0F70
:020000040030CA
:0A0000008CFFFFFF9FFFFFFFFFFFD3
:00000001FF
