:020000040000FA
:040000005DEF00F0C0
:10000800BE07BE07BE07BE07BE07BE07BE07BE07C0
:10001800AD07BE074A07BE07BE07BE07BE07BE0735
:1000280052072E002E002E00BE07BE07BE07BE07D1
:10003800BE07BE07BE07BE07BE07BE07BE07BE0790
:10004800BE07B807BE07BE07BE07BE07BE07BE0786
:10005800BE07BE07BE072E00BE07BE07BE07BE0707
:10006800AF07BE07BE07BE07BE07BE07BE072E0006
:10007800BE07BE07BE07BE072E00BE07BE07BE07E7
:10008800BE07BE07BE07BE072E00BE072E00BE076E
:10009800BE07BE07BE07BE07BE07BE07BE07BE0730
:1000A800B1072E002E00BE07BE07BE07BE07BE075B
:0600B800FF0055EF0EF001
:10160000003031323334353637383941424344457E
:1016100046436F6E76657273696F6E206572726F86
:10162000723A20636F64652000426567696E6E6977
:101630006E672043616C6962726174696F6E004FFE
:10164000504120496E2B2056616C75653A203078E8
:10165000004F5041204F55542056616C75653A201B
:10166000307800466F726D6572204F6666736574E0
:101670003A203078004F66667365742076616C7529
:10168000653A20307800506F52204F66667365745B
:101690003A203078004E6577204F66667365743A5D
:1016A000203078000A0D00001F6A206A216A276A2C
:1016B000266A30EC0EF060D0030EE82EFED700F064
:1016C000390E0AEC0FF0FFEC0EF001C524F502C54F
:1016D00025F58D0E0AEC0FF0FFEC0EF001C522F59A
:1016E00002C523F524C515F525C516F522C517F540
:1016F00023C518F5D2EC0DF02450225C1D6E255048
:1017000023581E6E1DC507F51EC508F5260E096E69
:10171000050E0A6EE0EC0BF0286E285003E1010E76
:10172000216E2AD00001A82906E12850800A7F0FE7
:1017300002E3010E05D0A85105E128AE03D0020E48
:10174000276E0ED030D81CBE04D01C0402E3A8695A
:1017500007D029D81CAE02D0A86B02D02850A827E9
:101760001F4A202A1F28201002E1030E276EAA0E0E
:10177000261802E1040E276E275002E121509CE05A
:1017800014EC0FF0275006E0110E0D6E27C50EF574
:10179000E7EC0EF0950E3FEC0EF0E7EC0EF05CEC93
:1017A0000DF092EF0DF028C519F51A6A19BE1A0648
:1017B000A8511B6E1C6A19501B261A501C221200BD
:1017C00008AE25D007C501F508C502F50468036811
:1017D0001BEC0EF001C507F502C508F508BE07D0E1
:1017E000085003E10B0E075C02E3F60E08D008BEBA
:1017F00008D0085003E1060E075C03E3FE0E0C6EF2
:1018000001D00C6829D8DF500B6ED89018D008BED4
:1018100007D0085003E10B0E075C02E30A0E0AD062
:1018200008BE07D0085003E1060E075C02E3020E73
:1018300001D0010E0C6E10D8DF500B6ED8800B3427
:101840000BD8DF6E08BE05D0085004E1020E075C1D
:1018500001E20C6A0C501200610024F4D9F461001A
:1018600028F4DAF41200AC90000E016A026A77ECF8
:101870000FF0AC92080E016E1C0E026E76EC0FF0AB
:10188000AC94000E016A026A78EC0FF0AC96000E80
:10189000016A026A75EC0FF00201A16BA26BA36BE7
:1018A000A46BA56BA66BA76BA86BA96BAA6B200E8C
:1018B000AB6F800EAC6FAD6B190EAE6FAF6BB06BD4
:1018C000B16BB26BB36B000E016A026A29EC0FF0C8
:1018D000000E016A026A24EC0FF0000E016A026A2F
:1018E0002EEC0FF0416A466A456A080E5B6E080CE2
:1018F00008C50AF509C50BF50C0E0C6ED8900B3215
:101900000A320C2EFBD70A50010F0D6E610034F421
:10191000F6F484EC0DF06100D4F30EF509C50AF578
:101920000F0E1BD86100D4F30FF508C50AF50A3A6B
:101930000F0E0A1612D86100D4F310F508C50AF587
:101940000F0E0BD86100D4F311F50E0E026E050ECA
:10195000036E040E046E92EF0DF00A160A50010F8A
:101960000B6E61002CF4F6F4160EF76EF86A0800A0
:101970001200D68A000ED6BE010E036ED69E550EFC
:101980000401596FAA0E596F59915F6B5E6B080E77
:101990005D6F550E596FAA0E596F598103B002D071
:1019A000D69E01D0D68E030169816B83B490D68018
:1019B000FA0E016E1E0E026E47EC0FF0B990D68241
:1019C000FC0E016E1E0E026E42EC0FF0BD90D6842E
:1019D000FE0E016E1E0E026E3DEF0FF00301D96B7D
:1019E000DA6BDB6BDC6BDF6BE06BE56B200EE76FBC
:1019F000EC6B200EEE6FEF6BF06BF16BF26BF46B38
:101A0000530EF56F070EF66FF76B030EF86FF96B59
:101A1000FA6B940EF36FB494F20E016E1E0E026E0A
:101A200051EC0FF0B590F40E016E1E0E026E4CECF0
:101A30000FF0AA801200BE6ABF6AC06A3B0EC66E73
:101A4000700EC76EFB0EC86E0401006B086B106B46
:101A5000016B096B116B026B0A6B126B370E036F14
:101A6000F00E0B6F13693F0E046FF00E0C6F1469CC
:101A7000100E0201106F0401056B066B076B0D6BF6
:101A80000E6B0F6B156B166B176B12000B6A0C6AE3
:101A900008D01BD884EC0DF0F550EBEC0DF00B4AA0
:101AA0000C2A13D884EC0DF0F550F3E1095001E154
:101AB000120002D892EF0DF0A40E026E0250D8A4CC
:101AC000160E036E020E046E020C08500B240A6EF2
:101AD000610028F4F6F412000C6E0CC508F5083A03
:101AE00018D812D86100D4F30AF50CC508F511D83E
:101AF0000BD86100D4F30BF50A0E026E050E036ECF
:101B0000020E046E92EF0DF0160EF76EF86A0800E2
:101B100012000F0E08160850010F096E610024F420
:101B2000F6F41200076A1CD007500224056E000E5E
:101B30000320066E610014F4F6F4610018F4F7F463
:101B4000000EF86E150EF76403D00800F55005D0AE
:101B5000F6C4E9F4F7C4EAF4EF50EBEC0DF0072A11
:101B60000450075CE1E3120065EC0EF0F3EC0EF0BC
:101B7000D68ED68C860E3FEC0EF0E7EC0EF069ECBC
:101B80000FF073EC0FF0B6A607D0B69666EC0FF028
:101B900054EC0BF069EC0FF0BDA6F5D7BD96000133
:101BA000A807F1D7750E3FEC0EF0E7EC0EF03F0EF4
:101BB000126E15C513F516C514F585EC0EF0510E11
:101BC000126E17C513F518C514F585EC0EF05CEC14
:101BD0000DF092EF0DF0016E5B50FEE0ACB204D060
:101BE000610004F4A3F20ED0AC92390E462416EC38
:101BF0000EF0610004F4DFF4462A070E466401D0BB
:101C0000466A5B06AC821200080E5B600DD0390E8E
:101C100045240CD8DF500201A36F452A070E456406
:101C200001D0456A5B2A1200AC921200D96EDA6AC2
:101C3000050EDA221200015003026100CCF305F513
:101C40006100D0F306F501500402F350062602505D
:101C50000302F350062605C501F506C502F512007C
:101C6000BE840001A3878F0EA517630E08D8E7EC8A
:101C70000EF0290E086E010E096E46EF0DF00D6E86
:101C80006000A0F20EF51200040E03012D6F2C6B04
:101C90002E6B130E2A6F296B000E016A026A33EC59
:101CA0000FF0BD96400E2B6F400C01EE29F11E0E79
:101CB000EE6AE806FDE10401080E5D6F000E5E6F3E
:101CC000000E5F6F0001B4EF0DF044EC0EF033EC4A
:101CD0000CF0B3EC0EF0EEEC0CF0B9EC0CF075EC93
:101CE0000EF06CEC0FF01BEF0DF0040E206F1F6B6D
:101CF000216BA10E1D6F1C6B000E016A026A38EC8D
:101D00000FF0B6967E0E1E6F7E0C12C508F5096A9E
:101D100046EC0DF013C508F514C509F578EC0CF088
:101D20005CEC0DF092EF0DF0B49459505A10D8A419
:101D300001D811000500FA6E5950FD6E5A50FE6E22
:061D4000FF6AFA501200D8
:101D4800B59057505810D8A401D811000500FA6E64
:101D58005750FD6E5850FE6EFF6AFA501200600E22
:101D68000001AD6F700EAE6FAF6BB36B020EB16F4B
:101D7800B26BB06BAC6B120055505610D8B4120051
:101D88000500FA6E5550FD6E5650FE6EFF6AFA5009
:101D9800120053505410D8B412000500FA6E535074
:101DA800FD6E5450FE6EFF6AFA50120051505210E8
:101DB800D8B412000500FA6E5150FD6E5250FE6EF6
:101DC800FF6AFA5012000DC508F5096A46EC0DF0D5
:101DD8000E506CEC0DF05CEC0DF092EF0DF0000184
:101DE800A36B390EA46F130EA56F800EA66FA76B99
:101DF800A96BA38F12000301E251046E036AE1513B
:101E08000324016E000E0420026E1200026E56ECCE
:101E18000FF00009FCE002501CEC0FF00300120068
:101E2800BE940001A397A5518F0B1009A56F12004E
:101E3800016E610004F4ECF30301F38FF3811200E7
:101E480001C549F502C54AF5120001C54BF502C5A1
:101E58004CF5120001C547F502C548F5120001C549
:101E68004DF502C54EF5120001C54FF502C550F5F6
:101E7800120001C551F502C552F5120001C553F50E
:101E880002C554F5120001C555F502C556F51200F4
:101E980001C557F502C558F5120001C559F502C527
:101EA8005AF512000201B2BF010C000CB490C0EC4C
:101EB8000EF01100B990CDEC0EF01100BD90DAECE7
:101EC8000EF0110003011E9F120003011E8F120065
:061ED800C30ED76FC30C1E
:101EE00004EC0EF011002B8F1200120012001200F1
:061EF000120012001200B6
:081EF80011001200120012009B
:020000040020DA
:10000000FF0FFF0FFF0FFF0FFF0FFF0FFF0FFF0F80
:10001000FF0FFF0FFF0FFF0FFF0FFF0FFF0FFF0F70
:020000040030CA
:0A0000008CFFFFFF9FFFFFFFFFFFD3
:00000001FF
