:020000040000FA
:040000005DEF00F0C0
:100008006E076E076E076E076E076E076E076E0740
:100018005F076E07FD066E076E076E076E076E07B1
:1000280005072E002E002E006E076E076E076E075E
:100038006E076E076E076E076E076E076E076E0710
:100048006E076E076E076E076E076E076E076E0700
:100058006E076E076E072E006E076E076E076E0737
:1000680061076E076E076E076E076E076E072E0034
:100078006E076E076E076E072E006E076E076E0717
:100088006E076E076E076E072E006E072E006E074E
:100098006E076E076E076E076E076E076E076E07B0
:1000A80063072E002E006E076E076E076E076E0739
:0600B800FF00CAEF0DF08D
:10160000003031323334353637383941424344457E
:1016100046436F6E76657273696F6E206572726F86
:10162000723A20636F646520004F504120496E2B51
:101630002056616C75653A203078004F5041204F3C
:1016400055542056616C75653A20307800466F72AB
:101650006D6572204F66667365743A203078004F6E
:1016600066667365742076616C75653A2030780023
:10167000506F52204F66667365743A203078004E82
:101680006577204F66667365743A203078000A0DDE
:101690000000376A386A396A3B6A3A6A64EC0EF0CD
:1016A00056D0030EE82EFED700F0390E6EEC0EF089
:1016B00059EC0EF01FC533F520C534F58D0E6EECD8
:1016C0000EF059EC0EF01FC531F520C532F5335040
:1016D000315C356E34503258366E35C525F536C519
:1016E00026F53A0E276E050E286ECBEC0BF03C6EFD
:1016F0003C5003E1010E396E2AD00001A82906E111
:101700003C50800A7F0F02E3010E05D0A85105E18D
:101710003CAE03D0020E3B6E0ED030D830BE04D0AB
:10172000300402E3A86907D029D830AE02D0A86BF4
:1017300002D03C50A827374A382A3728381002E10F
:10174000030E3B6EAA0E3A1802E1040E3B6E3B50AC
:1017500002E13950A6E078EC0EF03B5006E0110EA5
:101760002B6E3BC52CF5A5EC0DF07F0E31EC0DF08A
:10177000A5EC0DF0B0EC0DF036EF0DF03CC52DF5FD
:101780002E6A2DBE2E06A8512F6E306A2D502F26A0
:101790002E503022120026AE25D025C51FF526C5B5
:1017A00020F52268216890EC0DF01FC525F520C5B5
:1017B00026F526BE07D0265003E10B0E255C02E37A
:1017C000F60E08D026BE08D0265003E1060E255C92
:1017D00003E3FE0E2A6E01D02A6829D8DF50296E55
:1017E000D89018D026BE07D0265003E10B0E255CFA
:1017F00002E30A0E0AD026BE07D0265003E1060EE9
:10180000255C02E3020E01D0010E2A6E10D8DF50D3
:10181000296ED88029340BD8DF6E26BE05D026501D
:1018200004E1020E255C01E22A6A2A5012006100DE
:101830009CF4D9F46100A0F4DAF41200AC90000E2C
:101840001F6A206AD7EC0EF0AC92000E1F6A206A65
:10185000D6EC0EF0AC94000E1F6A206AD8EC0EF0A5
:10186000AC96000E1F6A206AD5EC0EF00201A16B47
:10187000A26BA36BA46BA56BA66BA76BA86BA96BE4
:10188000AA6B200EAB6F800EAC6FAD6B190EAE6FF6
:10189000AF6BB06BB16BB26BB36B000E1F6A206A9B
:1018A0008DEC0EF0000E1F6A206A88EC0EF0000E20
:1018B0001F6A206A92EC0EF0196A1E6A1D6A080EF1
:1018C000516E080CD68A000ED6BE010E216ED69E31
:1018D000550E0401596FAA0E596F59915F6B5E6BDB
:1018E000080E5D6F550E596FAA0E596F598121B0C0
:1018F00002D0D69E01D0D68E030169816B83B4904D
:10190000D680BA0E1F6E1D0E206EABEC0EF0B99095
:10191000D682BC0E1F6E1D0E206EA6EC0EF0BD9082
:10192000D684BE0E1F6E1D0E206EA1EF0EF0BE6A95
:10193000BF6AC06A3B0EC66E700EC76EFB0EC86EE5
:101940000401006B086B106B016B096B116B026B70
:101950000A6B126B370E036FF00E0B6F13693F0E9D
:10196000046FF00E0C6F1469110E0201496F100E16
:10197000106F0401056B066B076B0D6B0E6B0F6B25
:10198000156B166B176B12000301D96BDA6BDB6BEF
:10199000DC6BDF6BE06BE56B200EE76FEC6B200E12
:1019A000EE6FEF6BF06BF16BF26BF46B530EF56F48
:1019B000070EF66FF76B030EF86FF96BFA6B940E68
:1019C000F36FB494B20E1F6E1D0E206EB5EC0EF0C8
:1019D000B590B40E1F6E1D0E206EB0EC0EF0AA80F6
:1019E00012002A6E2AC526F5263A11D86100D4F3D2
:1019F00028F52AC526F50BD86100D4F329F5280E61
:101A0000206E050E216E020E226E36EF0DF00F0EC7
:101A100026162650010F276E61009CF4F6F4160E70
:101A2000F76EF86A08001200DAEC0DF04DEC0EF0DB
:101A3000D68ED68C700E15D8A5EC0DF0CDEC0EF030
:101A4000D3EC0EF0B6A607D0B696CAEC0EF049EC71
:101A50000BF0CDEC0EF0BDA6F5D7BD960001A807A2
:101A6000F1D72B6E6000A0F22CF51200256A1CD075
:101A700025502024236E000E2120246E61008CF45A
:101A8000F6F4610090F4F7F4000EF86E150EF764AA
:101A900003D00800F55005D0F6C4E9F4F7C4EAF421
:101AA000EF5075EC0DF0252A2250255CE1E3120081
:101AB000296A2A6A05D00DD875EC0DF0294A2A2A20
:101AC00008D8F9E1275001E11200B0EC0DF036EF33
:101AD0000DF026502924286E6100A0F4F6F4160EAD
:101AE000F76EF86A0800F55012001F6E5150FEE0C4
:101AF000ACB204D061007CF4A3F210D0AC92110E11
:101B00001E24D96EDA6A050EDA2261007CF4DFF455
:101B10001E2A070E1E6401D01E6A5106AC821200F6
:101B20001F5021026100CCF323F56100D0F324F5AE
:101B30001F502202F350242620502102F350242665
:101B400023C51FF524C520F512002BC526F5276AED
:101B500058EC0DF02C50F1EC0CF002D836EF0DF0F3
:101B60008E0E206E2050D8A4160E216E020E226E0C
:101B7000020C040E03012D6F2C6B2E6B130E2A6FBB
:101B8000296B000E1F6A206A97EC0EF0BD96400E7E
:101B90002B6F400C01EE01F11E0EEE6AE806FDE12E
:101BA0000401080E5D6F000E5E6F000E5F6F000196
:101BB00014EF0DF0B9EC0DF01EEC0CF019EC0EF07A
:101BC000C4EC0CF062EC0CF0EAEC0DF0D0EC0EF092
:101BD00097EF0CF0040E206F1F6B216BA10E1D6F91
:101BE0001C6B000E1F6A206A9CEC0EF0B6967E0EEF
:101BF0001E6F7E0CB4944F505010D8A401D8110021
:101C00000500FA6E4F50FD6E5050FE6EFF6AFA509E
:021C10001200C0
:101C1400B5904D504E10D8A401D811000500FA6EAD
:101C24004D50FD6E4E50FE6EFF6AFA501200600E6B
:101C34000001AD6F700EAE6FAF6BB36B020EB16F80
:101C4400B26BB06BAC6B12004B504C10D8B412009A
:101C54000500FA6E4B50FD6E4C50FE6EFF6AFA5052
:101C6400120049504A10D8B412000500FA6E4950C7
:101C7400FD6E4A50FE6EFF6AFA501200475048103B
:101C8400D8B412000500FA6E4750FD6E4850FE6E3F
:101C9400FF6AFA5012000001A36B390EA46F130EF1
:101CA400A56F800EA66FA76BA96BA38F120003010B
:101CB400E251226E216AE15121241F6E000E22207E
:101CC400206E1200BE840001A3878F0EA5174D0E4F
:101CD40031EC0DF0A5EF0DF0206EBAEC0EF000091A
:101CE400FCE0205080EC0EF003001200BE940001D2
:101CF400A397A5518F0B1009A56F12001F6E6100E9
:101D04007CF4ECF30301F38FF38112001FC53FF55C
:101D140020C540F512001FC541F520C542F512004B
:101D24001FC53DF520C53EF512001FC543F520C56E
:101D340044F512001FC545F520C546F512001FC520
:101D440047F520C548F512001FC549F520C54AF5D9
:101D540012001FC54BF520C54CF512001FC54DF5EB
:101D640020C54EF512001FC54FF520C550F51200D1
:101D74000201B2BF010C000CB49026EC0EF011006D
:101D8400B99033EC0EF01100BD9040EC0EF0110050
:101D940003011E9F120003011E8F1200C30ED76F92
:101DA400C30C2B8F1200120012001200120012003A
:021DB40012001B
:081DB8001100120012001200DC
:020000040020DA
:10000000FF0FFF0FFF0FFF0FFF0FFF0FFF0FFF0F80
:10001000FF0FFF0FFF0FFF0FFF0FFF0FFF0FFF0F70
:020000040030CA
:0A0000008CFFFFFF9FFFFFFFFFFFD3
:00000001FF
