:040000005DEF00F0C0
:10000800550755075507550755075507550750070D
:100018004507550755075507550755075507550708
:10002800EA062E002E002E005507550755075507DE
:1000380055075507550755075507550755075507D8
:1000480055075507550755075507550755075507C8
:100058005507550755072E005507550755075507E6
:1000680047075507550755075507550755072E00E4
:1000780055075507550755072E00550755075507C6
:1000880055075507550755072E0055072E005507E4
:100098005507550755075507550755075507550778
:1000A80049072E002E0055075507550755075507D0
:0600B800FF00B4EF0DF0A3
:10160000003031323334353637383941424344457E
:1016100046436F6E76657273696F6E206572726F86
:10162000723A20636F646520004F504120496E2B51
:101630002056616C75653A203078004F5041204F3C
:1016400055542056616C75653A20307800466F72AB
:101650006D6572204F66667365743A203078004F6E
:1016600066667365742076616C75653A2030780023
:10167000506F52204F66667365743A203078004E82
:101680006577204F66667365743A203078000A0DDE
:101690000000386A396A3A6A3C6A3B6A2EEC0EF0FE
:1016A00056D0030EE82EFED700F0390E38EC0EF0BF
:1016B00023EC0EF020C534F521C535F58D0E38EC40
:1016C0000EF023EC0EF020C532F521C533F5345071
:1016D000325C366E35503358376E36C526F537C511
:1016E00027F53B0E286E050E296ECBEC0BF03D6EF8
:1016F0003D5003E1010E3A6E2AD00001A82906E10F
:101700003D50800A7F0F02E3010E05D0A85105E18C
:101710003DAE03D0020E3C6E0ED030D831BE04D0A8
:10172000310402E3A86907D029D831AE02D0A86BF2
:1017300002D03D50A827384A392A3828391002E10A
:10174000030E3C6EAA0E3B1802E1040E3C6E3C50A8
:1017500002E13A50A6E042EC0EF03C5006E0110ED9
:101760002C6E3CC52DF57DEC0DF07F0E46EC0DF09A
:101770007DEC0DF088EC0DF009EF0DF03DC52EF578
:101780002F6A2EBE2F06A851306E316A2E50302699
:101790002F503122120027AE25D026C520F527C5AF
:1017A00021F52368226868EC0DF020C526F521C5D7
:1017B00027F527BE07D0275003E10B0E265C02E376
:1017C000F60E08D027BE08D0275003E1060E265C8F
:1017D00003E3FE0E2B6E01D02B6829D8DF502A6E52
:1017E000D89018D027BE07D0275003E10B0E265CF7
:1017F00002E30A0E0AD027BE07D0275003E1060EE7
:10180000265C02E3020E01D0010E2B6E10D8DF50D1
:101810002A6ED8802A340BD8DF6E27BE05D0275019
:1018200004E1020E265C01E22B6A2B5012006100DB
:10183000A0F4D9F46100A4F4DAF41200AC90000E24
:10184000206A216AA7EC0EF0AC92000E206A216A91
:10185000A6EC0EF0AC94000E206A216AA8EC0EF003
:10186000AC96000E206A216AA5EC0EF00201A16B75
:10187000A26BA36BA46BA56BA66BA76BA86BA96BE4
:10188000AA6B200EAB6F800EAC6FAD6B190EAE6FF6
:10189000AF6BB06BB16BB26BB36B000E206A216A99
:1018A0005EEC0EF0000E206A216A59EC0EF0000E7C
:1018B000206A216A63EC0EF0196A1200D68A000EC3
:1018C000D6BE010E226ED69E550E0401596FAA0E89
:1018D000596F59915F6B5E6B080E5D6F550E596FB6
:1018E000AA0E596F598122B002D0D69E01D0D68E51
:1018F00003016981B490D680580E206E1D0E216EB2
:101900007CEC0EF0B990D6825A0E206E1D0E216E20
:1019100077EC0EF0BD90D6845C0E206E1D0E216E0D
:1019200072EF0EF0BE6ABF6AC06A3B0EC66E700EE2
:10193000C76EFB0EC86E370E0401006FF00E086F05
:101940001069016B096B116B026B0A6B126B370E1E
:10195000036FF00E0B6F13693F0E046FF00E0C6FE8
:101960001469100E0201106F0401056B066B076B02
:101970000D6B0E6B0F6B156B166B176B1200030163
:10198000D96BDA6BDB6BDC6BDF6BE06BE56B200E2E
:10199000E76FEC6B200EEE6FEF6BF06BF16BF26BA1
:1019A000F46B530EF56F070EF66FF76B030EF86FBF
:1019B000F96BFA6B940EF36FB494B590520E206EDF
:1019C0001D0E216E81EC0EF0AA8012002B6E2BC52D
:1019D00027F5273A11D86100D4F329F52BC527F54F
:1019E0000BD86100D4F32AF5290E216E050E226E64
:1019F000020E236E09EF0DF00F0E27162750010F70
:101A0000286E6100A0F4F6F4160EF76EF86A08006E
:101A10001200266A1CD026502124246E000E22209B
:101A2000256E610090F4F6F4610094F4F7F4000E72
:101A3000F86E150EF76403D00800F55005D0F6C413
:101A4000E9F4F7C4EAF4EF5052EC0EF0262A2350E2
:101A5000265CE1E3120091EC0DF0D68ED68C700E70
:101A600015D87DEC0DF099EC0EF0A3EC0EF0B6A6B7
:101A700007D0B69696EC0EF049EC0BF099EC0EF010
:101A8000BDA6F5D7BD960001A807F1D72C6E600062
:101A9000A0F22DF512002A6A2B6A05D00DD852EC5F
:101AA0000EF02A4A2B2A08D8F9E1285001E1120049
:101AB00088EC0DF009EF0DF027502A24296E610003
:101AC000A4F4F6F4160EF76EF86A0800F55012004A
:101AD000205022026100CCF324F56100D0F325F5FB
:101AE00020502302F350252621502202F3502526B0
:101AF00024C520F525C521F512002CC527F5286A37
:101B00004BEC0DF02D50E6EC0CF002D809EF0DF087
:101B10008E0E216E2150D8A4160E226E020E236E58
:101B2000020CE3EC0DF092EC0CF0BFEC0CF09CEC32
:101B30000EF017EC0EF0A3EC0DF0C4EC0DF01EEC63
:101B40000CF05EEF0CF0040E0301206F1F6B216B95
:101B5000A10E1D6F1C6B000E206A216A6DEC0EF049
:101B6000B696FE0E1E6FFE0C01EE01F11F0EEE6A20
:101B7000E806FDE10401080E5D6F000E5E6F000EC9
:101B80005F6F00012BEF0DF0040E2D6F2C6B2E6B91
:101B9000130E2A6F296B000E206A216A68EC0EF082
:101BA000BD96C00E2B6FC00CB5904E504F10D8A4F0
:101BB00001D811000500FA6E4E50FD6E4F50FE6EBA
:101BC000FF6AFA501200600E0001AD6F700EAE6F2A
:101BD000AF6BB36B020EB16FB26BB06BAC6B12003C
:101BE0004C504D10D8B412000500FA6E4C50FD6EEA
:101BF0004D50FE6EFF6AFA5012004A504B10D8B496
:101C000012000500FA6E4A50FD6E4B50FE6EFF6AE0
:101C1000FA50120048504910D8B412000500FA6E6C
:101C20004850FD6E4950FE6EFF6AFA501200380EA1
:101C30000001A46F130EA56F800EA66FA76BA96B92
:101C4000800EA36F800C0301E251236E226AE151E2
:101C50002224206E000E2320216E1200BE8400017B
:101C6000A3878F0EA5174D0E46EC0DF07DEF0DF0FE
:101C7000216E86EC0EF00009FCE021504AEC0EF0DB
:101C800003001200BE940001A397A5518F0B100909
:101C9000A56F1200206E610080F4ECF30301F38F56
:101CA000F3811200206EB7A2FED7610080F4A3F288
:101CB000120020C540F521C541F5120020C542F5AE
:101CC00021C543F5120020C53EF521C53FF51200A0
:101CD00020C544F521C545F5120020C546F521C5AE
:101CE00047F5120020C548F521C549F5120020C569
:101CF0004AF521C54BF5120020C54CF521C54DF51F
:101D0000120020C54EF521C54FF512000201B2BFE9
:101D1000010C000CB490F0EC0DF01100B990FDEC4A
:101D20000DF01100BD900AEC0EF0110003011E9F92
:0E1D3000120003011E8F1200C30ED76FC30CEA
:101D4000ABEC0EF011002B8F1200120012001200EB
:0E1D5000120012001100120012001200120008
:020000040020DA
:10000000FF0FFF0FFF0FFF0FFF0FFF0FFF0FFF0F80
:10001000FF0FFF0FFF0FFF0FFF0FFF0FFF0FFF0F70
:020000040030CA
:0A0000008CFFFFFF9FFFFFFFFFFFD3
:00000001FF
